S00F000032302D554152542E737265634A
S21440000068390020A9134000711440007114400064
S214400010711440007114400071144000000000004C
S21440002000000000000000000000000071144000C6
S214400030711440000000000071144000711440002C
S2144000407114400071144000711440007114400057
S2144000507114400071144000711440007114400047
S214400060411B40007114400000000000490C400055
S214400070610C4000790C400071144000711440003F
S21440008000000000000000007114400071144000A1
S214400090711440007114400071144000BD1B4000B4
S2144000A071144000711440007114400071144000F7
S2144000B071144000711440007114400071144000E7
S2144000C071144000711440007114400010B5054C86
S2144000D0237833B9044B13B10448AFF300800123AF
S2144000E0237010BD70080020000000003C53400004
S2144000F0084B10B51BB108480849AFF300800848C4
S214400100036803B910BD074B002BFBD0BDE8104079
S214400110184700BF000000003C5340007408002011
S2144001203C5340000000000080B582B000AF7860CD
S2144001307B68072B30D801A252F823F09901400083
S2144001405D014000650140006D01400075014000C2
S2144001507D014000850140008F0140000020104B8B
S214400160984719E001200E4B984715E000200D4BAC
S214400170984711E010200B4B98470DE02020094B84
S214400180984709E000203E21074B984704E00120AD
S2144001903E21054B984700BF0837BD4680BD00BF8F
S2144001A0150D4000810D4000F10D400080B582B035
S2144001B000AF78607B68072B26D801A252F823F060
S2144001C0E1014000E5014000E5014000F701400044
S2144001D0F7014000F7014000F7014000F7014000FA
S2144001E0012312E00B4B98470346002B14BF012314
S2144001F00023DBB209E0084B98470346002B14BFA8
S21440020001230023DBB200E0002318460837BD4632
S21440021080BD00BF4D0D4000690E400080B483B0E5
S21440022000AF78607B68072B25D801A252F823F0F0
S21440023051024000570240005D0240006302400009
S214400240670240006B0240006F02400073024000AD
S2144002504FF4FA4310E04FF400430DE04FF40043F0
S2144002600AE0084B08E0084B06E0084B04E0074B62
S21440027002E0064B00E0002318460C37BD465DF80A
S214400280047B704700093D0000127A00001BB7004F
S21440029080B582B000AF0346FB7100BFFB791846BD
S2144002A0054B9847034683F00103DBB2002BF5D19C
S2144002B00837BD4680BD00BFAD01400080B586B062
S2144002C000AFF8607A603B600B46FB72FB7A1846DC
S2144002D00D4B984702467B68B2FBF3F37B617B6924
S2144002E03A6802FB03F37B613B68013B1A04074B09
S2144002F013407A68D2B2134343F47C52FB681A60C8
S2144003001837BD4680BD00BF1D0240000000FF07F5
S21440031080B582B000AF786039603B68002B08D16A
S214400320084B9847084A7B681B6843F00053936223
S21440033005E0064B9847044A7B681B68D36208373B
S214400340BD4680BD850E400000040E40B90E4000FC
S21440035080B582B000AF78607B68002B03D1054B38
S2144003609847034602E0044B98470346184608372A
S214400370BD4680BD9D0E4000D10E400080B582B087
S21440038000AF0346FB71FB79033B042B08D8FB798F
S2144003901846054B9847FB791846044B984700E0AB
S2144003A000BF0837BD4680BD29014000910240008D
S2144003B080B582B000AF786000BF7868044B98473D
S2144003C00346002BF9D0002318460837BD4680BDAB
S2144003D05103400080B500AF0620044B98470246C4
S2144003E013469B0013449B00184680BD1D024000E8
S2144003F080B500AF024B984703465B08184680BD61
S214400400D503400090B583B000AF1148114B9847D4
S2144004100620114B98473B1D1846062101221423FF
S2144004200E4CA0473B1D184600210D4B9847002018
S2144004300C4B984710200C4B98470C4B98470C4B4E
S214400440984703461846034B98470C37BD4690BD21
S214400450000E2707151640007D034000BD024000F1
S21440046011034000B1034000910C40007914400055
S214400470F103400080B586B000AFF860B9607A609E
S21440048000237B61FB68002B02D04FF0FF3314E063
S2144004900FE00C4B1B680C4A12681046B968984728
S2144004A0BB680133BB607B6901337B617B68013B82
S2144004B07B607B68002BECDC7B6918461837BD46B2
S2144004C080BD00BF480900205009002080B586B096
S2144004D000AFF860B9607A6000237B61FB68012B4F
S2144004E008D0FB68022B05D0FB68032B02D04FF0E8
S2144004F0FF331AE015E00F4B1A680F4B1868BB68BD
S214400500591CB9601B78194690470346002B02DAFF
S2144005104FF0FF3309E07B6901337B617B68013B29
S2144005207B607B68002BE6D17B6918461837BD4652
S21440053080BD00BF4C0900205009002080B582B025
S21440054000AF78607868024B98470837BD4680BD54
S214400550ED0E400080B500AF0B20044B98470C20B2
S214400560024B98470D20014B984780BD3D05400003
S21440057080B500AF0F4B4FF400425A600E4B984781
S21440058013204FF060510D4B984714204FF06051A8
S2144005900A4B984723200A49084B98474C2009495C
S2144005A0064B984708484FF4C0614FF00062074B2F
S2144005B0984780BD50140E405505400071084000D5
S2144005C07900002859000028000E0E40290A4000F5
S2144005D080B485B000AFF860B9607A607B68002B65
S2144005E003D0FB68BA685A6602E0FB68BA681A66C7
S2144005F01437BD465DF8047B704700BF80B483B0B7
S21440060000AF786039607B683A681A630C37BD463D
S2144006105DF8047B704700BF80B483B000AF78605D
S21440062039607B683A685A630C37BD465DF8047B90
S214400630704700BF80B487B000AFF860B9607A609A
S214400640FB687A685A64BB68B3F1C05F4AD0B3F1BE
S214400650C05F08D8B3F1006F16D0B3F1805F2CD0DE
S214400660002B69D064E0B3F1205F65D0B3F1205F22
S21440067003D8B3F1005F4AD05AE0B3F1405F5BD095
S214400680B3F1605F58D053E0FB681B6F7B61FB683B
S2144006901A6F7B68D9437B690B401A40FB681A6720
S2144006A0FB685B6F7B61FB685A6F7B68D9437B69ED
S2144006B00B401A40FB685A673AE0FB681B6F7B6149
S2144006C07A687B691A43FB681A67FB685B6F7B61D5
S2144006D0FB685A6F7B68D9437B690B401A40FB68BE
S2144006E05A6725E0FB681B6F7B61FB681A6F7B6867
S2144006F0D9437B690B401A40FB681A67FB685B6FFF
S2144007007B617A687B691A43FB685A6710E0FB682E
S2144007101B6F7B617A687B691A43FB681A67FB68C4
S2144007205B6F7B617A687B691A43FB685A6700BFD8
S214400730FB687A685A6000E000BF1C37BD465DF82B
S214400740047B704780B584B000AFF860B9607A60CB
S214400750F868B968184B98477B6803F00103F86857
S214400760B9681A46154B98477B6803F00A03002B76
S21440077003D0FB68BA681A6202E0FB68BA685A623D
S2144007807B6803F00203002B04D0FB68BA68C3F80A
S214400790802008E07B6803F00803002B03D0FB684A
S2144007A0BA68C3F88420FB68BA685A61FB68BA68BE
S2144007B01A601037BD4680BD25084000D105400070
S2144007C080B584B000AFF860B9607A603B60F86886
S2144007D0B968124B9847F868B968BA69104B984799
S2144007E03B68002B03D0FB68BA681A6502E0FB68DA
S2144007F0BA685A657B68002B03D0FB68BA681A63F0
S21440080002E0FB68BA685A63FB68BA681A61FB681C
S214400810BA681A601037BD4680BD00BF2508400044
S214400820D105400080B483B000AF786039607B6803
S2144008303A685A640C37BD465DF8047B704700BF83
S21440084080B483B000AF78607B68DB6C18460C37AA
S214400850BD465DF8047B704780B483B000AF7860D7
S2144008607B689B6C18460C37BD465DF8047B70472A
S21440087090B587B002AF786039607868654B984726
S214400880F8603B6803F0F043B3F1005F6BD0B3F120
S214400890005F09D8B3F1805F2DD0B3F1C05F46D07A
S2144008A0B3F1006F0BD0AEE0B3F1405F00F0838051
S2144008B0B3F1605F7FD0B3F1205F70D0A3E07B6878
S2144008C003F01F03012202FA03F3F8684FF00061B9
S2144008D01A46514B98477B6803F01F03012202FAE1
S2144008E003F31A463B6803F00103F86811461A46BC
S2144008F04A4B984789E07B6803F01F03012202FABF
S21440090003F3F8684FF080511A46434B98477B688C
S21440091003F01F03012202FA03F31A463B6803F072
S2144009200103F86811461A463C4B98476DE07B68D1
S21440093003F01F03012202FA03F3F8684FF0C05198
S2144009401A46354B98477B6803F01F03012202FA8C
S21440095003F31A463B6803F00103F86811461A464B
S2144009602E4B984751E07B6803F01F03012202FAA2
S21440097003F3F8684FF000511A46274B98477B68B8
S21440098003F01F03012202FA03F31A463B6803F002
S2144009900103F86811461A46204B984735E07B68B5
S2144009A003F01F03012202FA03F3F86819463A6877
S2144009B01B4B984729E07B6803F01F03012202FA8D
S2144009C003F319463B6803F06053B3F1605F0CBF16
S2144009D001230023DBB21A463B6803F00403002BD6
S2144009E014BF01230023DBB21C463B6803F001031F
S2144009F0002B14BF01230023DBB20093F868234684
S214400A00084CA04701E0002300E0012318461437B5
S214400A10BD4690BD550B400035064000D105400010
S214400A2045074000C107400090B587B002AFF86068
S214400A30B9607A607B6803F0F043B3F1005F43D05F
S214400A40B3F1005F09D8B3F1805F1FD0B3F1C05F48
S214400A502BD0B3F1006F0AD06DE0B3F1405F48D0C1
S214400A60B3F1605F45D0B3F1205F3CD063E0F868F7
S214400A704FF00061BA68334B98477B6803F0010338
S214400A80F868B9681A46304B984756E0F8684FF011
S214400A908051BA682B4B98477B6803F00103F8688F
S214400AA0B9681A46284B984747E0F8684FF0C05157
S214400AB0BA68244B98477B6803F00103F868B96826
S214400AC01A46214B984738E0F8684FF00051BA680C
S214400AD01C4B98477B6803F00103F868B9681A46D0
S214400AE0194B984729E0F868B9687A68174B9847D1
S214400AF023E07B6803F06053B3F1605F0CBF0123D3
S214400B000023DBB21A467B6803F00403002B14BFB5
S214400B1001230023DBB21C467B6803F00103002B55
S214400B2014BF01230023DBB20093F868B96823465C
S214400B30074CA04701E0002300E001231846143785
S214400B40BD4690BD35064000D105400045074000F3
S214400B50C107400080B485B000AF78607B685B0911
S214400B6003F5001303F207735B02FB60FB6818464D
S214400B701437BD465DF8047B704700BF80B584B02F
S214400B8000AF7860396078682A4B9847F860786894
S214400B90294B98470246FB681340FB60FB68002BD6
S214400BA038D00023BB6032E0244ABB681B011344A4
S214400BB01A683B689A4223D1204ABB681B011344FB
S214400BC05A68FB681340002B1AD01C4ABB681B01AE
S214400BD0134408335B681949BA6812010A4410681E
S214400BE01649BA6812010A44526811469847134A91
S214400BF0BB681B0113445B68DB43FA681340FB6029
S214400C00BB680133BB60BB68062B00D902E0FB68BB
S214400C10002BC9D10A4B1B68002B07D0094B1B6819
S214400C20002B03D0074B1B68786898471037BD46A3
S214400C3080BD00BF41084000590840008C08002095
S214400C4054090020FC08002080B500AF02480B2164
S214400C50024B984780BD00BF000E0E407D0B400003
S214400C6080B500AF02480C21024B984780BD00BFBC
S214400C7000100E407D0B400080B500AF02480D21AD
S214400C80024B984780BD00BF00120E407D0B4000CF
S214400C9080B485B000AF78601D491D4B1B6B23F0B8
S214400CA070027B6813430B634FF40063FB6007E0FE
S214400CB0FB68002B01D1012323E0FB68013BFB606E
S214400CC0134B9B6E03F00803002BF1D0104A104BD9
S214400CD01B6B23F0030343F0020313634FF40063DC
S214400CE0FB6007E0FB68002B01D1012309E0FB68AD
S214400CF0013BFB60064B9B6E03F00803002BF1D0D4
S214400D00002318461437BD465DF8047B704700BF85
S214400D1000040E4080B483B000AF78607B68012B3F
S214400D2007D1084A074B9B6843F0254343F480139A
S214400D309360044B044A1A600C37BD465DF8047B4A
S214400D40704700BF10140E40080000A580B400AFE6
S214400D50094B5B6903F08003002B07D0074B9B6E63
S214400D6003F08003002B01D0012300E00023184647
S214400D70BD465DF8047B704710140E4000040E40DC
S214400D8080B483B000AF7860184A184B1B6A43F4AF
S214400D905C1343F00803136200BF144B9B6E03F4CE
S214400DA00033002BF9D01149104B1B6A23F45C1317
S214400DB023F070037A68134343F45C130B6200BF5E
S214400DC00A4B9B6E03F40033002BF9D0074A074BBF
S214400DD01B6A23F09B7323F4803343F45C13136243
S214400DE00C37BD465DF8047B704700BF00040E40DC
S214400DF080B483B000AF786039607B68002B08D041
S214400E001649164B1B6A164A1A40164B13430B627A
S214400E101EE01249114B1B6A23F45C1323F00303B4
S214400E203A68120292B2134343F45C1343F0010350
S214400E300B6200BF094B9B6E03F00103002BF9D0F9
S214400E40064A064B1B6A43F09B7343F48033136297
S214400E500C37BD465DF8047B704700BF00040E406B
S214400E60FCFFC8FE0200370180B400AF044B9B6E07
S214400E7003F480331846BD465DF8047B704700BFD8
S214400E8000040E4080B400AF034B4FF000529A620D
S214400E90BD465DF8047B704700040E4080B400AF4A
S214400EA0044B9B6E03F002031846BD465DF8047B78
S214400EB0704700BF00040E4080B400AF034B0022D2
S214400EC0DA62BD465DF8047B704700BF00040E4002
S214400ED080B400AF044B9B6E03F004031846BD4637
S214400EE05DF8047B704700BF00040E4080B483B0BA
S214400EF000AF78607B68222B01D901232FE07B6806
S214400F001F2B13D8194B9A697B68012101FA03F30A
S214400F101A407B68012101FA03F39A421ED0134A15
S214400F207B68012101FA03F3136117E07B68203BDD
S214400F307B600E4BD3F808217B68012101FA03F34E
S214400F401A407B68012101FA03F39A4206D0074A09
S214400F507B68012101FA03F3C2F8003100231846EA
S214400F600C37BD465DF8047B704700BF00040E405A
S214400F7080B487B000AFF860B9607A60BB689B0108
S214400F80FA6813447B617B6902221A607B694FF0E2
S214400F90FF329A627B691B6A7B697A685A601C37A3
S214400FA0BD465DF8047B704780B483B000AF786080
S214400FB039607A683B689B01134405221A600C37F7
S214400FC0BD465DF8047B704780B485B000AFF860DE
S214400FD0B9607A60FA68BB689B01134418337A6834
S214400FE05A601437BD465DF8047B704780B487B0BE
S214400FF000AFF860B9607A60BB689B01FA6813443A
S2144010007B617B697A685A621C37BD465DF8047B13
S214401010704700BF80B485B000AF786039603B68E9
S2144010209B017A681344FB60FB681B6A18461437BA
S214401030BD465DF8047B704780B485B000AF7860ED
S21440104039600023FB607B68AC221A603B681A68F4
S2144010503B685B68B2FBF3F31B09FB60FB68002B45
S21440106003D0FB68B3F5803F01D301230FE07B68D4
S214401070FA681A623B689A687B685A607B6840F2F6
S2144010800222C3F820217B6850221A6000231846AB
S2144010901437BD465DF8047B704700BF80B483B00C
S2144010A000AF78600B46FB707B685B6903F0020319
S2144010B0002B01D1012303E0FA787B68DA61002334
S2144010C018460C37BD465DF8047B704780B483B045
S2144010D000AF786039607B685B6903F00103002BE2
S2144010E001D1012305E07B689B69DAB23B681A7040
S2144010F0002318460C37BD465DF8047B704700BF9A
S21440110080B489B000AFF860B9607A60BB681A01F5
S2144011107B689A4202D81023FB6101E00823FB61FA
S2144011207B68DA00FB69B96801FB03F35B081A4485
S214401130FB69B96801FB03F3B2FBF3F3BB61BB6920
S214401140DB087B61BB6903F007033B617B69002BCF
S21440115003D07B69B3F5803F01D301230FE0FB69E1
S214401160082B05D1FB685B6843F40022FB685A6095
S2144011703B691A047B691A43FB681A6200231846C7
S2144011802437BD465DF8047B704700BF80B582B00B
S21440119000AF786078680E4B98477B6800225A60AC
S2144011A07B6800225A627B6800229A627868094B04
S2144011B098477868084B98477868084B9847786807
S2144011C0074B98477868074B98470837BD4680BD19
S2144011D08913400085124000B5124000CD124000F1
S2144011E005134000E912400080B584B000AFF860B7
S2144011F0B9607A60F8681A4B98471A4B00221A6012
S214401200BB68002B09D0BB681B68F86819467A682B
S214401210154B98470346002B01D001231BE0BB68C3
S2144012205A68BB689B681A43BB681B691A43BB680D
S214401230DB681A430B4B1B6813430A4A1360094B7F
S2144012401B68084A1360FB685A68064B1B681A43BB
S214401250FB685A60002318461037BD4680BD00BF65
S2144012608D114000000900200111400080B483B079
S21440127000AF78607B6840221A600C37BD465DF848
S214401280047B704780B483B000AF78607B68882268
S2144012901A600C37BD465DF8047B704780B483B057
S2144012A000AF78607B6810221A600C37BD465DF848
S2144012B0047B704780B483B000AF78607B6824229C
S2144012C01A600C37BD465DF8047B704780B483B027
S2144012D000AF78607B684FF480721A600C37BD466A
S2144012E05DF8047B704700BF80B483B000AF786081
S2144012F07B684FF400321A600C37BD465DF8047BBD
S214401300704700BF80B483B000AF78607B684FF40E
S21440131000221A600C37BD465DF8047B704700BF5C
S21440132080B483B000AF786039607B685B6903F057
S2144013300203002B01D1012305E03B68C3F30802FA
S2144013407B68DA61002318460C37BD465DF8047B9F
S214401350704700BF80B483B000AF786039607B6868
S2144013605B6903F00103002B01D1012306E07B6893
S2144013709B69C3F308023B681A60002318460C3783
S214401380BD465DF8047B704780B483B000AF78609C
S2144013907B68044AC3F8E4200C37BD465DF8047BFE
S2144013A0704700BF0041535580B584B000AF274B0F
S2144013B0FB60274BBB60FA68BB689A420DD907E0D2
S2144013C0BB681A1DBA60FA68111DF96012681A6087
S2144013D0BB68204A9342F3D320E0FA68BB689A423F
S2144013E01CD21C4A1A4BD31A7B60FA687B6813449B
S2144013F0043BFB60BA687B681344043BBB600AE06E
S214401400BB681A1FBA60FA68111FF96012681A6042
S2144014107B68043B7B607B68002BF1D100BF0E4BA2
S214401420BB6004E0BB681A1DBA6000221A60BB6845
S2144014300A4A9342F6D30A4BFB600A4AFB6893601B
S214401440094B9847094B9847FEE700BF3C5340007E
S2144014500000002070080020700800206809002066
S2144014600000400000ED00E0951F4000291E4000AF
S21440147080B400AFFEE700BF80B400AF5D4B1B6B8F
S21440148003F00303032B00F2968001A252F823F0E8
S214401490A1144000C11440000B1540000B1540003D
S2144014A0554B5B6903F08003002B04D0534B4FF43D
S2144014B000421A6080E0514B4FF4FA421A607BE0DB
S2144014C04C4B1B6A03F08073002B03D04B4B4C4AAB
S2144014D01A6019E0494B4B4A1A60464B1B6A03F0A8
S2144014E07003102B08D0202B0AD0002B00D00BE026
S2144014F0424B444A1A6007E0404B434A1A6003E0B6
S2144015003E4B3F4A1A6000BF56E03A4B1B6A03F018
S2144015108073002B03D0394B394A1A6019E0374B99
S214401520384A1A60334B1B6A03F07003102B08D0FE
S214401530202B0AD0002B00D00BE0304B314A1A60EB
S21440154007E02E4B304A1A6003E02C4B2C4A1A60B8
S21440155000BF284B1B6B03F00303022B15D1254B12
S2144015609A6A2A4B13401B0C0133244A126802FB2A
S21440157003F3224A13601F4B9B6ADBB21F4A126872
S214401580B2FBF3F31D4A136016E01A4BDA6A1F4BA0
S21440159013401B0C0133194A126802FB03F3174A27
S2144015A01360144BDB6ADBB2144A1268B2FBF3F3E7
S2144015B0124A136000E000BF0E4B1B6B03F0700333
S2144015C0702B08D10D4B1B68114AA2FB03235B0806
S2144015D00A4A136009E0074B1B6B03F070031A09B5
S2144015E0064B1B68D340054A1360BD465DF8047B36
S2144015F0704700BF00040E4010140E40000000204C
S214401600001BB70000093D0000127A000000FF07EB
S214401610ABAAAAAA80B483B000AF78607B68224A9F
S214401620934208D8214B4FF080621A60204B4FF00F
S21440163080621A6033E07B681E4A934206D81B4B92
S2144016401D4A1A601A4B1C4A1A6028E07B681B4ADF
S214401650934206D8154B1A4A1A60154B184A1A6018
S2144016601DE07B68174A934206D8104B164A1A600C
S2144016700F4B154A1A6012E07B68144A934208D80A
S2144016800A4B4FF004221A60094B4FF004221A60AE
S21440169005E0064B0E4A1A60054B0D4A1A600C3799
S2144016A0BD465DF8047B7047FF2C3101000A0E40B2
S2144016B0000C0E40FF59620200010004FF869303AF
S2144016C000020004FFB3C40400030004FFE0F50575
S2144016D00005000480B485B000AF7860104BFB6016
S2144016E0104B1B68002B02D10E4B0F4A1A600D4B55
S2144016F01B68BB60BA687B681A44FB689A4202DD86
S2144017004FF0FF3306E0074B1A687B681344054AE0
S2144017101360BB6818461437BD465DF8047B7047B7
S214401720FC7F0220040900206839002080B483B082
S21440173000AF78604FF0FF3318460C37BD465DF873
S214401740047B704780B483B000AF786039603B68F4
S2144017504FF400525A60002318460C37BD465DF8D9
S214401760047B704780B483B000AF7860012318468E
S2144017700C37BD465DF8047B704700BF80B485B02B
S21440178000AFF860B9607A60002318461437BD464B
S2144017905DF8047B704700BF80B483B000AF03465B
S2144017A0FB71084997F907305B09FA7902F01F0286
S2144017B0012000FA02F241F823200C37BD465DF8BE
S2144017C0047B704700E100E080B483B000AF7860EF
S2144017D07B68072B25D801A252F823F0FD1740005E
S2144017E003184000091840000F1840001318400026
S2144017F0171840001B1840001F1840004FF4FA43CB
S21440180010E04FF400430DE04FF400430AE0084B6D
S21440181008E0084B06E0084B04E0074B02E0064BA6
S21440182000E0002318460C37BD465DF8047B704741
S21440183000093D0000127A00001BB70080B500AFDB
S2144018400620044B9847024613469B0013449B00D1
S214401850184680BDC917400080B500AF024B984778
S21440186003465B08184680BD3D18400080B500AF73
S214401870024B984703465B08184680BD3D1840001B
S21440188080B582B000AF78607868024B98470837DA
S214401890BD4680BDED0E400080B58CB000AF786090
S2144018A03960304B984703467B623B681B68BB6297
S2144018B03B689B68FB623B681B68FB603B685B68F9
S2144018C03B613B689B687B613B68DB68BB61002390
S2144018D0FB617B68244A934208D10820234B9847F3
S2144018E007F1240378681946214B98477B68214ABC
S2144018F0934208D109201D4B984707F12403786886
S21440190019461B4B98477B681B4A934211D10E20C1
S214401910164B9847134B9847024607F10C037868D6
S2144019201946164B98477868154B98477868154B74
S21440193098477B68144A934211D10F200B4B984727
S214401940084B9847024607F10C03786819460B4B3C
S214401950984778680A4B984778680A4B98473037D4
S214401960BD4680BD6D18400000060E408118400000
S2144019703910400000080E4000400240E911400087
S2144019806D1240009D1240000080024080B582B03B
S21440199000AF78600B46FB707B68204A93420AD1C2
S2144019A000BFFB78786819461D4B98470346002BC6
S2144019B0F7D101232DE07B681A4A93420AD100BF33
S2144019C0FB7878681946164B98470346002BF7D1A4
S2144019D001231EE07B68144A93420AD100BFFB787D
S2144019E078681946114B98470346002BF7D10123D8
S2144019F00FE07B680E4A93420AD100BFFB787868B6
S214401A0019460A4B98470346002BF7D1012300E0BE
S214401A10002318460837BD4680BD00BF00060E406E
S214401A209D10400000080E40004002402113400038
S214401A300080024080B584B000AF786039600023F3
S214401A40FB607B681E4A934207D100BF78683968BE
S214401A501C4B98470346002BF8D17B681A4A9342A2
S214401A6007D100BF78683968164B98470346002B65
S214401A70F8D17B68154A93420DD100BF07F10C039D
S214401A8078681946124B98470346002BF6D1FB68F8
S214401A90DAB23B681A707B680E4A93420DD100BF9B
S214401AA007F10C0378681946094B98470346002B04
S214401AB0F6D1FB68DAB23B681A701037BD4680BD77
S214401AC000060E40CD10400000080E400040024088
S214401AD0551340000080024080B582B000AF786069
S214401AE039600F4A7B6813600E4B0F4A1A600F4BE3
S214401AF00F4A1A60786839680E4B98470E4B1B6839
S214401B009B68184600210D4B98470B4B1B685B683B
S214401B1018460021094B98470837BD4680BD00BF90
S214401B20500900204C0900208D194000480900202B
S214401B30351A400099184000300400201521400016
S214401B4080B400AF194B1B78092B22D8174B1B7853
S214401B501A46174B9B69D9B2164B9954134B1B78B0
S214401B601A46144B9B5C0A2B0CD1104B1B781A461A
S214401B70104B002199540D4B00221A700E4B012237
S214401B801A700FE0094B1B780133DAB2074B1A7014
S214401B9008E0084B00229A72044B00221A70064B4B
S214401BA0FF221A70BD465DF8047B70470809002086
S214401BB000060E40580900200F09002080B582B06C
S214401BC000AF3B4800213B4B984703467B607B6811
S214401BD0394B1B78012B1FD1384B1B780133DAB2B7
S214401BE0364B1A70354B1A78354B1B789A4213D3BE
S214401BF0344B9B6B03F48013002B05D031484FF4D5
S214401C008011314B984704E02E484FF480112F4BFB
S214401C1098472A4B00221A702D4B1B78012B1FD158
S214401C202C4B1B780133DAB22A4B1A70294B1A78A0
S214401C30294B1B789A4213D3284B9B6B03F4801393
S214401C40002B05D025484FF480111F4B984704E0E1
S214401C5022484FF480111D4B98471E4B00221A70A5
S214401C601F4B1B78012B1FD11E4B1B780133DAB25A
S214401C701C4B1A70114B1A78114B1B789A4213D38F
S214401C80164B9B6B03F40023002B05D013484FF4F0
S214401C9000210D4B984704E010484FF400210B4BB1
S214401CA09847104B00221A700837BD4680BD00BFCB
S214401CB00000014015104000100900200C090020CB
S214401CC00909002000120E4019064000FD0540009C
S214401CD0120900200D0900200A090020000E0E40BF
S214401CE0110900200E09002080B584B000AF1548C9
S214401CF04FF4C0614FF00062134B98470820134BD7
S214401D0098473B4600221A60043300221A60043388
S214401D1000221A60043300221A6004334FF4E13381
S214401D203B604FF40063BB603B4609481946094B8D
S214401D3098470820084B9847054B01229A60103771
S214401D40BD4680BD000E0E40290A40008118400066
S214401D5000060E40D91A40009917400080B582B060
S214401D6000AF104B9847786017200F4B98470F48A6
S214401D70002144F204020E4B98470C4800212122D1
S214401D800C4B98470948002110220B4B98471720C8
S214401D900A4B984705480021094B98470837BD46E7
S214401DA080BD00BF59184000ED0E400000000140C5
S214401DB0710F4000C90F4000ED0F400099174000DA
S214401DC0A90F400080B500AF0148024B984780BD40
S214401DD0F05040000521400080B584B000AF7860E8
S214401DE039600023FB730BE0FB7B7A681344FA7B75
S214401DF0023279680A4412781A70FB7B0133FB730F
S214401E00FB7B082BF0D97868064B984702464FF480
S214401E107A7393FBF2F3DAB23B681A701037BD461A
S214401E2080BD00BF8D1F400090B587B002AF414BCC
S214401E3000221A70404B00221A70404B9847404B85
S214401E4098470B203F4B9847002300933E484FF45B
S214401E500021012200233D4CA0473D4B98473D4B77
S214401E6098473D483D4B98473D4B9847324B1B78EB
S214401E70012B5ED13B483C493C4B98472E4B0022B9
S214401E801A70394B5B78672B1DD0722B02D0622BB1
S214401E9032D04AE0344B1B78302B03D1344B0022EF
S214401EA01A700FE0304B1B78312B07D1304B012294
S214401EB01A702D482F49304B984703E02F482B4B3C
S214401EC0984736E035E0284B1B78302B03D1284B1B
S214401ED000221A700FE0244B1B78312B07D1244B7D
S214401EE001221A7020482649234B984703E023488E
S214401EF01E4B98471DE01CE01B4B1B78302B03D134
S214401F001B4B00221A700FE0174B1B78312B07D162
S214401F10174B01221A7014481A49174B984703E08A
S214401F201648124B984704E003E017480F4B984773
S214401F3000BF9BE7080900200F0900200504400069
S214401F4071054000ED0E4000000E0E40C1074000F7
S214401F505D1D4000E91C4000145140000521400032
S214401F60C51D40007051400058090020E51F400044
S214401F701009002009090020D91D40008451400066
S214401F800A0900200B0900209851400000210A222F
S214401F9000F000BA70B50F4E0F4D761BB61018BF46
S214401FA0002405D0013455F8043B9847A642F9D1A1
S214401FB00A4E0B4D761B03F0ABF9B61018BF002443
S214401FC006D0013455F8043B9847A642F9D170BD77
S214401FD070BD00BF1C5340001C53400024534000BB
S214401FE01C5340000FB400B5074983B004AB0868E3
S214401FF053F8042B8168019300F014FA03B05DF89F
S21440200004EB04B0704700BF3004002070B484076F
S21440201046D0541E002A41D0CDB2034602E0621E8E
S214402020E4B3144603F8015B9A07F8D1032C2ED983
S214402030CDB245EA05250F2C45EA054519D903F1E9
S21440204010022646103E0F2E42F8105C42F80C5CFA
S21440205042F8085C42F8045C02F11002F2D8A4F19F
S214402060100222F00F0204F00F041032032C134427
S2144020700DD91E462246043A032A46F8045BFAD88F
S214402080221F22F003020432134404F003042CB14E
S214402090C9B21C4403F8011BA342FBD170BC704775
S2144020A014460346C2E700BFF0B5044689B008466A
S2144020B00D4600F0B3F8A368114F9A8904950221A3
S2144020C000F1010E012604AD029191040590CDF871
S2144020D00CE006970796019506D4596E42F40052D6
S2144020E021F400519A8159662046194601AA01F00A
S2144020F03DFB002814BF4FF0FF300A2009B0F0BD6A
S214402100B8514000024B01461868FFF7CDBF00BFEC
S2144021103004002000290CBF022200224FF48063C6
S21440212000F000B82DE9F0413A4C26680D460446CA
S21440213090461F4616B1B36B002B3CD0B8F1020F49
S2144021402FD8002F2DDB2146304601F0CBF8A18951
S21440215000236360A3610B0627D421F0830189B274
S214402160B8F1020FA1812AD0002D36D0B8F1010F68
S21440217011D089B201F00800274BF36380B2256086
S2144021802561676178B111F0030F18BF0027A7607B
S2144021900020BDE8F08141F001017B42A181A361AE
S2144021A0E7E74FF0FF30BDE8F0812169304601F0A7
S2144021B005FAA189D1E7304601F028F9BEE70020AC
S2144021C004F1430341F0020100250122A181A560EC
S2144021D0236023616261BDE8F081002F08BF4FF4A1
S2144021E08067384601F0F2FC054628B1A18941F0E7
S2144021F0800189B2A181B9E74FF4806001F0E6FC26
S214402200054618B9A1894FF0FF30D9E74FF48067EB
S214402210ECE700BF300400201133400020F00301FB
S21440222010F00300C0F1000051F8043B00F1040C2C
S2144022304FEACC0C6FF000021CBF22FA0CF213439C
S2144022404FF0010C4CEA0C2C4CEA0C4CA3EB0C0265
S21440225022EA030212EACC1204BF51F8043B0430CF
S214402260F4D0C2F1000102EA0102B2FA82F2C2F1EF
S2144022701F0200EBD20070472DE9F04F444C8346D6
S2144022800E46D4F800E000E02646344614F8015BDB
S2144022900EEB0500407800F0080000F0FF0800282C
S2144022A0F2D12D2D4BD02B2D04BF7578B41C1BB10D
S2144022B0102B60D09A4603E0302D54D00A239A461D
S2144022C0B8F1000F14BF4FF000406FF000400027F9
S2144022D0B0FBFAF9BC460AFB19000CE0303DAB42B5
S2144022E019DD7E1C05D0CC4524D821D00AFB0C5CD9
S2144022F0012714F8015B0EEB0506767816F0040FFE
S214402300ECD116F0030606D0012E0CBF3726572612
S214402310AD1BAB42E5DC7B1C16D0C8F100008CEA56
S214402320000040444AB107B1611E1160BDE8F08F1D
S2144023308542DBDD4FF0FF37DBE7BDE8F08FB41CAE
S21440234075784FF00108B2E7B8F1000F4FF022035E
S21440235014BF4FF000406FF00040CBF80030002A2A
S214402360E2D1BDE8F08F237803F0DF03582B09D085
S21440237008239A46A4E7302D9CD1207800F0DF0051
S214402380582897D14FF0100A65785346023497E79D
S2144023903404002030B4044C0D46134601462A4609
S2144023A0206830BCFFF768BF300400204B6E2DE934
S2144023B0F0479C040F4692462BD59368126833B379
S2144023C0804602F1080919E96000B60817D0043DB6
S2144023D0002401E0A64210D0404655F8041F3A4675
S2144023E001F08CF8431C04F10104F3D10023CAF831
S2144023F00830CAF80430BDE8F087DAF80830A3EBB6
S2144024008603CAF8083009F10809002BDBD1002002
S214402410ECE701F0ABF90023CAF80830CAF80430FC
S214402420BDE8F0872DE9F04FABB01C4600919346CF
S2144024300493019018B1836B002B00F0E380009B5F
S21440244099898AB2900408D418465B6E41F40052CB
S21440245023F400538281436692B2110740F1B28062
S214402460009B1B69002B00F0AD8002F01A020A2A7E
S21440247000F0B48000230DF1680A09930F930E9381
S2144024800293CDF834A054469BF80030002B00F061
S214402490A384252B00F0A0845A4601E0252B03D0C8
S2144024A012F8013F002BF9D1CBEB0206154696B148
S2144024B00E9B0F9AC4F800B001333244072B666077
S2144024C00F920E9379DD002A40F0AF84029B0E9265
S2144024D03344544602932B78002B00F0608300214F
S2144024E04FF000034FF0FF3C8DF82F30681C6B78A0
S2144024F088460D46664600F1010BA3F12002582A95
S21440250000F2AB82DFE812F09B02A902A902A30206
S214402510A902A902A902A902A902A90255026202B9
S214402520A9020D016E02A90229012F012F012F01D8
S2144025302F012F012F012F012F012F01A902A902E0
S214402540A902A902A902A902A902A902A902A902EE
S2144025503D01A902A902A902A902A902A902A9024B
S214402560A902A902A9027401A902A902A902A90204
S214402570A9028B01A902A902A301A902A902A902E4
S214402580A902A902A902A902A902A902A902C70191
S214402590DA01A902A902A9022301DA01A902A902C5
S2144025A04C02A9028A021301F3010702A9020D0296
S2144025B0A9028100A902A90233020834029B3344CF
S2144025C0029388E70198009900F070FDA8B9009B37
S2144025D09A8902F01A020A2A7FF44CAF009BB3F99C
S2144025E00E30002BFFF646AF019800995A46234618
S2144025F000F020FD2BB0BDE8F08F4FF0FF302BB041
S214402600BDE8F08F00F002FF19E718F0200F0395A1
S214402610B44600F00C81049B073323F0070303F114
S2144026200802D3E90067049201234FF000028DF8B8
S2144026302F20E1460025BCF1000FA8BF28F08008F7
S21440264056EA070240F0C480BCF1000F00F08183D8
S214402650012B00F0C580022B00F087835146F2081C
S21440266042EA4772F80806F0070307461646303334
S21440267056EA070201F8013DF1D118F0010F079123
S21440268040F0FC83C1EB0A09E1454E46B8BF6646BA
S21440269005B1013618F00203059318BF023618F04C
S2144026A08403069340F0FA81039B9D1B002D40F364
S2144026B0F581102D40F38C84DDF838E00F9AC64F34
S2144026C02046102364467146844607E001F1020E18
S2144026D00CF1080C0146103D102D13DD481C10323D
S2144026E007280F92CCF80070CCF804300E90EDDD41
S2144026F0002A40F0C381103D102D11464FF0010EC8
S214402700D446EBDC63467146A4461C462A44072959
S2144027100F92276065600E9100F346830834481C8C
S214402720BFE1584648F004089BF80030E3E618F04E
S21440273020030395B44662D0049B073323F0070377
S21440274003F10802D3E90067049200236DE748F0DE
S21440275040089BF800305846CDE648F080089BF885
S21440276000305846C7E6A3F1300200251BF8013B6F
S21440277005EB850502EB4505A3F13002092AF5D99C
S214402780BBE648F0100818F0200F0395B4468DF8C5
S2144027902F1000F09B800499073121F00701D1E902
S2144027A000230831049116461F46002A73F10003A1
S2144027B0C0F2A683BCF1000FA8BF28F0800856EAF6
S2144027C007029DF82F50E1464FF001033FF43CAF1F
S2144027D0012B7FF440AF002F08BF0A2E80F03483D1
S2144027E02AAB303603F8416DC3EB0A0907934BE733
S2144027F048F0100818F020030395B4469CD118F012
S214402800100240F0F78218F0400300F0F38204997B
S21440281013460A4604320E880492002705E748F01D
S214402820100818F0200F0395B4467FF4F4AE049ACF
S21440283018F0100F134640F0E48218F0400F00F0F6
S214402840E08216880432002701230492EDE6634AAC
S214402850039518F0200FB4468DF82F10099200F01B
S2144028609080049A073222F00702D2E9006702F10C
S2144028700801049118F0010F00F0908256EA070212
S21440288000F08C8230228DF8313048F002088DF806
S21440289030200223C9E6049A039513688DF8403029
S2144028A01346043301264FF00001049310AB8DF815
S2144028B02F10B14607934FF0000CEBE618F0200FB0
S2144028C00395B4468DF82F107FF465AF18F0100FBF
S2144028D040F0A28218F0400F00F09E820499B1F9B1
S2144028E000600431F71732463B4604915DE7049991
S2144028F0039530230A468DF83030782304328DF81D
S2144029003130374B0993B44648F002080E680492BB
S2144029100027022389E648F020089BF800305846F6
S214402920E9E5049A0395136807934FF00001B4460F
S2144029308DF82F10161D002B00F05083BCF1000FB1
S214402940C0F22A83079DCDF810C062462846002173
S21440295001F0D6FBDDF810C0002800F05083C5EB30
S214402960000904969DF82F504FF0000C8CE61C4A48
S214402970039518F0200FB44609928DF82F107FF477
S21440298070AF049918F0100F0A4640F0408218F0D5
S214402990400F00F03C8204320E880492002769E71C
S2144029A09BF800306C2B00F0EA8248F0100858463E
S2144029B0A1E5049A15681346002D03F10403C0F2FE
S2144029C0E68204939BF80030584694E59BF8003026
S2144029D058462B218FE500BFFC514000CC514000AB
S2144029E0E05140009BF800302A2B0BF1010000F02C
S2144029F00F83A3F13002092A83464FF000063FF6C4
S214402A007CAD1BF8013B06EB860602EB4606A3F1BF
S214402A103002092AF5D946EAE6766EE518F0200F28
S214402A208DF82F1000F08382049A02991368CF170E
S214402A300846043239460492C3E9000124E5584664
S214402A409BF8003000297FF456AD202153E548F02E
S214402A50010858469BF800304DE503958DF82F1039
S214402A60002B00F09C808DF840304FF0000301268C
S214402A708DF82F3010ABB14607931CE701980099AC
S214402A8008930DAAFFF792FC002840F08F800E991D
S214402A900F9A089B01F1010ED4461CE60E990F9A38
S214402AA0481C9DF82F306BB101320DF12F030121E8
S214402AB007280F920E902360616000F33481014630
S214402AC008340130059B63B102320CA90223072863
S214402AD00F920E9084E80A0000F3348101460834D1
S214402AE00130069B802B00F0D480C9EB0C07002FEA
S214402AF02BDD102FAA4D1FDDA6461023019C07E0B4
S214402B0001F1020C0EF1080E0146103F102F11DDA8
S214402B10481C103207280F92CEF80050CEF80430EA
S214402B200E90EDDD6ABB103F102F4FF0010C1146A2
S214402B30D646EDDC744660463A4407280F9284E851
S214402B40A0000E903BDC0834013002EB0903079AE4
S214402B500F93072884E804020E903DDD002B40F0DA
S214402B603E8118F0040F0E9340F02F81029B039A8B
S214402B709642ACBF9B199B18029300230E93544673
S214402B8082E42046009905930DAAFFF70FFC68B92A
S214402B900E990F9A059B01F1010CD646B5E70F9B9F
S214402BA023B1019800990DAAFFF700FC009B9B8972
S214402BB05B063FF522AD02982BB0BDE8F08F002AA9
S214402BC040F0918101220799CDF86C904B46CDF8A4
S214402BD03C901A910E92544604F1080218F0040FE5
S214402BE039D003998D1B002D35DD102D40F3028220
S214402BF00E986C4FDDF80480DDF80090102406E057
S214402C0000F1020E08320846103D102D10DD411C22
S214402C10103307290F93176054600E91F0DD002B98
S214402C202AD1103D102D4FF0010E18465246EEDCCC
S214402C302B44BEF1070F0F9317605560CDF838E070
S214402C4009DD002B92D0019800990DAAFFF7AEFB44
S214402C500028ABD10F9B029A03998E42ACBF9219C3
S214402C6052180292002B88D0019800990DAAFFF7BF
S214402C709DFB002881D099E7404649460DAAFFF7BC
S214402C8095FB002892D10E980F9B00F1010E5246FC
S214402C90BAE7039B9F1B002F7FF727AF102F404DAF
S214402CA040F3B481204610236446844607E001F191
S214402CB0020E0CF1080C0146103F102F11DD481C87
S214402CC0103207280F92CCF80050CCF804300E9003
S214402CD0EDDDC2B9103F102F4FF0010E1146D4461D
S214402CE0EDDC6346A4461C463A44BEF1070F0F92FD
S214402CF084E8A000CDF838E000F3EF8008340EF109
S214402D0001007146F1E60198009905930DAAFFF778
S214402D104DFB00287FF44AAF0E990F9A059B01F1B0
S214402D20010ED446C8E7002A40F0C680059B002B1B
S214402D3000F086800CAA02231A9208461B931A4675
S214402D405446CBE6002A40F0A68001201146544661
S214402D50C7E603BB18F0010F1DD02AAB302203F89C
S214402D60412DC3EB0A0907938EE40998D1463309EF
S214402D7006F00F0143EA07733A091E461746435CBE
S214402D8009F8013D56EA0703F1D14B46CDF81C90B1
S214402D90C3EB0A0978E4CDF81CA075E4022344E4AA
S214402DA0BC514000FC514000002A40F0D7809DF8BE
S214402DB02F30002B00F0AE8001230DF12F01184676
S214402DC01B931A461A91544679E6039A951B002D92
S214402DD052463FF70AAFC9E65D46FFF77CBB01980F
S214402DE000990DAAFFF7E2FA00287FF4DFAE0F9BAA
S214402DF05246F3E604990A4604320E6804920027C7
S214402E0013E404321E680492012300270DE416687A
S214402E100432049200272DE5049A166813460433BC
S214402E20F717049332463B46BFE4019800990DAA33
S214402E30FFF7BCFA00287FF4B9AE5446FFF7BEBB96
S214402E400846544611464CE6D146CDF814C03046A6
S214402E5039460A22002301F07DFE3032304639469C
S214402E6009F8012D00230A2201F074FE06460F469B
S214402E7056EA0703EBD1DDF814C086E7302B079BF4
S214402E8086D0013B1A4607933023C2EB0A0901F865
S214402E90013CFFF7F9BB01980099CDF814C00DAA84
S214402EA0FFF784FA00287FF481AE0E990F9ADDF87A
S214402EB014C0481C544614E601980099CDF820C02A
S214402EC00DAAFFF773FA00287FF470AE0E990F9A9A
S214402ED0DDF820C0481C5446F4E5002A67D101209E
S214402EE01146544601E6019800990DAAFFF75EFA8E
S214402EF000287FF45BAE0E980F9A0130544624E6C5
S214402F002D25764267EB47078DF82F50E146012383
S214402F10FFF791BB059B114601205446002B3FF41A
S214402F20E4AD0CAA02238AE80C001A46D6E518F04F
S214402F30100F0BD118F0400F08D0049A13680432D3
S214402F400492BDF808201A80FFF79EBA049A1368C8
S214402F5004320492029A1A60FFF796BA01980099D2
S214402F60CDF820C00DAAFFF721FA00287FF41EAE48
S214402F700E990F9ADDF820C0481C544691E548F05B
S214402F8020080BF101009BF80130FFF7B4BA6D4200
S214402F9004935846FFF7C6BB07980496FFF73EF9DA
S214402FA09DF82F5081464FF0000CFFF76DBB0198FF
S214402FB00099CDF814C00DAAFFF7F8F900287FF461
S214402FC0F5AD0E990F9ADDF814C0481C54468CE5B2
S214402FD00E990F9A154F0131FFF798BBBCF1060FBB
S214402FE028BF4FF0060C124B0496E1462CEAEC76CE
S214402FF0079360E40E990D4F01F1010E18E6E14685
S2144030009DF82F5004968446FFF73EBB86466BE6F7
S214403010049A9BF8013016680432002E0492BFF6DC
S2144030206AAA4FF0FF36FFF766BA00BFFC51400071
S214403030F45140002DE9F0420C46ADF58D6DB1F8E7
S2144030400CE0E769496EB4F80E9019911AAD4FF44A
S21440305080662EF0020E4FF0000C07976946676AAE
S2144030600095049502960596ADF80CE0ADF80E90E6
S2144030700997CDF818C00646FFF7D4F9051E07DBBA
S2144030803046694600F02EF9002818BF4FF0FF354D
S214403090BDF80C305B0603D5A38943F04003A381FB
S2144030A028460DF58D6DBDE8F08200BF38B52F4B34
S2144030B01B6805460C4613B19A6B002A36D0A28987
S2144030C093B218070CD52069A8B113F001021ED0A0
S2144030D0636900225B42A361A260F0B1002038BD64
S2144030E0D9063BD5580725D4206942F00803A3816A
S2144030F09BB20028E9D103F42072B2F5007FE4D0F9
S2144031002846214600F0F2FCA3892069DDE79907AE
S21440311058BF6269A2600028E0D1A3891A06DED5AE
S21440312043F04003A3814FF0FF3038BD184600F00F
S2144031306DF9C4E7216B49B104F14003994203D0CD
S214403140284600F03BFAA2890023236322F024029B
S21440315000232069636092B22060C6E742F04002D6
S21440316009232B604FF0FF30A28138BD3004002089
S214403170024B13B1024800F005B87047000000004B
S21440318021344000014600200246034601F0EEBBD3
S2144031908B899AB22DE9F0410D46110780463CD402
S2144031A06A6843F40063002AAB8165DDAE6A002E90
S2144031B04BD09BB203F48052002192B2D8F8004024
S2144031C0C8F80010002A5BD02A6D5F0705D56968ED
S2144031D02B6B521A0BB1EB6BD21A4046E9690023AF
S2144031E0B047461C56D0AB892A692A6023F4006350
S2144031F09BB200226A60DA04AB813BD4296BC8F8E4
S214403200004011B305F14003994202D0404600F019
S214403210D5F900202863BDE8F0812E69AEB12C6850
S2144032202E6091070CBF6B690023A41BAB600AE0BD
S214403230324623466F6AE9694046B8470028A4EB01
S2144032400004064404DD002CF2DC0020BDE8F081DA
S214403250AB8943F04003AB814FF0FF30BDE8F081CF
S214403260AB892A69696023F400639BB2AB81DB04B7
S2144032702A60C3D52865C1E7EA6B002A96DCE4E7F6
S21440328001234046E969B047431C024619D0AB8942
S214403290AE6A9AE7D8F800100029E1D01D2907D079
S2144032A0162905D0AB8943F04003AB81BDE8F081D9
S2144032B0AB892A692A6023F400630022AB816A60E6
S2144032C09CE7D8F80030002BE1D01D2B07D0162BFA
S2144032D005D0AB8943F04003AB81BDE8F081C8F828
S2144032E00040B2E710B5044682B008B1836B53B1D4
S2144032F0B1F90C0008B902B010BD204602B0BDE8D6
S2144033001040FFF745BF019100F080F80199EFE7C4
S214403310014900F0B7BB00BF354A40002DE9F04FE9
S214403320354B4568C3630024074600F53B720423CB
S2144033300321C0F8E412C0F8E822C0F8E04283B0A7
S2144033402C606C60AC606C66EC812C616C61AC612E
S214403350AB81214605F15C000822FEF757FEBE68A9
S214403360DFF898B0DFF898A0DFF89890DFF89880FC
S214403370C5F820B001230922C5F824A0C5F8289036
S214403380C5F82C80ED612146F381B28106F15C00E0
S21440339034607460B460746634617461B4610822E9
S2144033A00193FEF733FEFD68F66112200222C6F84E
S2144033B020B0C6F824A0C6F82890C6F82C8021462F
S2144033C0A881EA812C606C60AC606C662C616C6194
S2144033D0AC6105F15C000822FEF718FE019BED612A
S2144033E0C5F820B0C5F824A0C5F82890C5F82C80AC
S2144033F0BB6303B0BDE8F08F11334000A9474000DF
S214403400CD4740000548400025484000836B03B147
S2144034107047FFF783BF00BF704700BF704700BFCD
S21440342038B5084B084DED1AAC1018BFED1805D04E
S214403430013C55F8043D9847002CF9D1BDE838408A
S21440344001F070BF30534000345340002DE9F04146
S21440345082B007460E46144600F042FB012841D093
S214403460384601A9324604F15C0301F033FAB0F164
S214403470FF3F80462FD000283CD09DF80410002502
S21440348009E0236819702368013323600135A84595
S21440349030D901AB595DA368013B002BA360F0DA3D
S2144034A0A269934207DB23681970236819780A29B2
S2144034B003F10103E9D13846224601F0B7F9A0F1FD
S2144034C0FF30B0FA80F040090028DFD04FF0FF30E0
S2144034D002B0BDE8F081A38943F04003A38102B067
S2144034E0BDE8F081731EFE2BBAD8F1B280468DF847
S2144034F00410C4E7304602B0BDE8F081938913F467
S214403500005F0BD110B4546E43F4005344F400549F
S214403510546693815DF8044BFFF798BFFFF796BF5C
S214403520F8B5234F0C46064600F032FFBB685D6890
S21440353025F00305291B01F6EF7121F47F6121F088
S2144035400F01A1F58054B4F5805F07DB30460021BB
S21440355001F018F9BB682B44984204D0304600F07E
S21440356019FF0020F8BD3046614201F00BF90130EA
S2144035700DD0104BBA6819682D1B45F00105304632
S214403580091B5560196000F005FF0120F8BD304664
S214403590002101F0F7F8BA68831A0F2BDEDD064CDF
S2144035A00449246843F00103001B53600860D5E7D4
S2144035B05C040020200900206808002000294ED026
S2144035C02DE9F0410C46804600F0E2FE54F8047CBB
S2144035D0624927F00102A4F10805AB188E685868C6
S2144035E09E4220F003005AD0FE0758600BD454F891
S2144035F0087CED1B01F1080EAC6874453A4467D070
S214403600EF68E760BC601C186468E4070CD4544F4D
S2144036109C68BC4202447CD0D868E06042F001031B
S21440362084606B60AA5003E042F001036B60AA50CE
S214403630B2F5007F14D2D20801EBC20348689F68F7
S214403640AF609210012404FA02F21043EB60486027
S2144036509D60FD604046BDE8F04100F09BBE70476F
S214403660530A042B47D8930903F13804600001EB52
S21440367080003A498368834243D0596821F0030169
S214403680914202D99B689842F7D1DA68EA60AB600B
S21440369040469560DD60BDE8F04100F07BBEFF0728
S2144036A0024407D454F8083CED1A1A44A868EB685C
S2144036B0C36098602B4B1B6842F001009A426860DA
S2144036C08D60C7D3284B40461968FFF729FFC1E7EE
S2144036D019184968C90709D4D9689B68024442F05A
S2144036E00100D9608B606860AA50B3E742F00103DE
S2144036F06B60AA50AEE7142B14D803F15B0460004D
S214403700B5E74A68A4100120A04002434A601A4622
S214403710BCE742F001034D610D61EC60AC606B604C
S214403720AA5097E7542B04D8130B03F16E0460009D
S2144037309DE7B3F5AA7F04D8D30B03F17704600066
S21440374095E740F25450834204D8930C03F17C042E
S21440375060008CE7FC207E2489E700BF5C040020E4
S21440376064040020640800201C0900209368002B95
S2144037707AD02DE9F04FB1F80CE01EF0080F83B078
S2144037800C468146164626D00B6923B30EF0020837
S2144037901FFA88F0356870B34FF0000ADFF8E0B2E1
S2144037A0D046D8454346524628BF5B464846B8F1C1
S2144037B0000F53D0E169676AB847002873DDB368E5
S2144037C01B1A8244C0EB0808B360002BE9D10020E6
S2144037D003B0BDE8F08F48462146FFF767FC002857
S2144037E040F04581B4F80CE035680EF002081FFA48
S2144037F088F00028D0D11EF0010B5DD1D846B8F134
S214403800000F25D01EF4007FA7682FD0B845BA46D3
S214403810C0F0A9801EF4906F40F0B68020685246F3
S214403820594600F051FDA0682268C01B02EB0A030F
S214403830A06023604046B3681B1A8344C0EB080868
S214403840B360002BC3D0B4F80CE0B8F1000FD9D168
S214403850D5F800B0D5F804800835D0E7D5F800A0F4
S214403860D5F8048008359CE7002070472068236917
S214403870984203D86269904580F0B980474528BF92
S21440388047463A46594600F01FFDA3682268DB1BB0
S2144038903A44A3602260002B4AD148462146FFF7AF
S2144038A021FD002844D0A38943F040034FF0FF3069
S2144038B0A38103B0BDE8F08F8046009083468246E1
S2144038C0BAF1000F2CD0009B002B50D02068216905
S2144038D0D4F808E06269D045434628BF534688423C
S2144038E01F4604D90EEB020C634500F392809342C8
S2144038F020DB1346676AE16948465A46B847071EC2
S214403900D1DDB8EB070825D0B368DB1BBB44C7EB5B
S2144039100A0AB360002B3FF45AAFBAF1000FD2D177
S2144039200023D5F800B0D5F804A000930835C7E7C3
S214403930384680E71A465946019300F0C5FCA2680F
S2144039402168019BB8EB0708A2EB03020B44A26078
S2144039502360D9D148462146FFF7C4FC0028A2D1AF
S214403960CDF80080D0E720684746C24657E758461D
S2144039700A21524600F0C4FB002873D001300123D0
S214403980CBEB00080093A1E767692169236807EB42
S21440399047075B1A07EBD777581C7F10404487428F
S2144039A03A463CBF07463A461EF4806F009346D0E0
S2144039B01146484600F012F9009B8246002859D02E
S2144039C01A462169009300F0E5FBA289009B22F489
S2144039D0906242F08002A2810AEB0300FB1AC4F810
S2144039E010A067612060A3604746C24617E76FF0A5
S2144039F00043434528BF4346676A93FBF2F3484675
S214403A0003FB02F3E1695A46B84700283FF713AF75
S214403A1049E762465946CDF804C000F055FC236895
S214403A20DDF804C06344236048462146FFF75AFC4D
S214403A30DDF804C000287FF436AF674661E74846A5
S214403A4000F0AAFC009B82460028C5D14846216962
S214403A50FFF7B4FDA3890C2223F080039BB2C9F87C
S214403A60002021E701230AF1010800932EE74FF0DA
S214403A70FF30ADE60C23C9F80030A38914E700BF39
S214403A8000FCFF7F2DE9F84310F538771FD08846B5
S214403A9006464FF000097D68BC68013D11D4A389F5
S214403AA0012B05F1FF3508D9B4F90E300133214614
S214403AB0304602D0C04749EA00096B1C04F168044E
S214403AC0EDD13F68002FE6D14846BDE8F883B946B9
S214403AD04846BDE8F88300BF0048704738040020D9
S214403AE0014B1868704700BF580400208B899AB273
S214403AF012F0020F3CD1F0B50C46B1F90E10002979
S214403B0091B0054619DB01AA00F0D6FF002812DB6B
S214403B10029B03F47043B3F5004FA3F50057B7FA82
S214403B2087F74FEA57172AD0A38943F40063A38147
S214403B304FF480660BE0A3899AB212F0800F43F4EC
S214403B400063A3810CBF4FF48066402600272846BA
S214403B50314600F043F8A38940B31A4AEA6343F07B
S214403B608003A3812060206166619FB911B0F0BDDB
S214403B7001F1430301220B600B614A617047124B0F
S214403B80A26A9A42D0D1A3894FF480663343A38178
S214403B90E664DCE72846B4F90E1000F0A1FF0028E2
S214403BA0E4D0A38943F00103A381DFE79A05DDD47F
S214403BB004F1430243F002030121A3812260226103
S214403BC06161D3E71133400005484000024B01468F
S214403BD0186800F003B800BF300400202DE9F04F0D
S214403BE001F10B05162D83B0064627D935F007059B
S214403BF000F1B680A94200F2B38000F0C9FBB5F5EB
S214403C00FC7F22D2C24FE80807EBC003DC689C4228
S214403C1000F0C8816368E168A56823F00303234485
S214403C2030465A68E96042F001028D605A6000F002
S214403C30B1FB0834204603B0BDE8F08F102900F2EF
S214403C408F8000F0A5FB1025DCE7680A00F08F8027
S214403C50042800F25481A80938304100AC4F07EBE5
S214403C608101CC68A14206D10CE0002A80F2828015
S214403C70E468A14206D0636823F003035A1B0F2A68
S214403C80F3DD01380130A2493C6901F1080E744564
S214403C9000F07D81636823F003035A1B0F2A00F36C
S214403CA06381002AC1F814E0C1F810E073DAB3F576
S214403CB0007F80F03981DB0801EBC3084FEAA30C94
S214403CC04A68D8F80890C4F80890012303FA0CF321
S214403CD01343C4F80C804B60C8F80840C9F80C4041
S214403CE08210012494409C4262D8234206D120F0A0
S214403CF003006400234200F10400FAD007EBC0083A
S214403D00C4468146DCF80C309C4507D141E1002989
S214403D1080F25181DB689C4500F03B815A6822F076
S214403D200302511B0F29F2DD1C46D3F80CC054F891
S214403D30088F5A1945F0010941F00105C3F804906F
S214403D403046C8F80CC0CCF808807A613A61C2F8B0
S214403D500CE0C2F808E05560515000F01BFB69E7E4
S214403D6000240C232046336003B0BDE8F08F7E214C
S214403D703F2073E72344E1685A68A56842F0010291
S214403D80E96030468D605A6000F004FB08342046F7
S214403D9003B0BDE8F08F234430465A6842F0010233
S214403DA05A6000F0F7FA0834204603B0BDE8F08FBA
S214403DB0BC68636823F00308454504D8C5EB080390
S214403DC00F2B00F38C80534BDFF858A11A68DAF8B3
S214403DD0003001332A4404EB080B00F0508102F512
S214403DE080520F3222F47F6222F00F021146304694
S214403DF0019200F0C7FCB0F1FF3F8146019A00F007
S214403E004781834500F2EE80434B1968CB45114409
S214403E10196000F04281DAF80000DFF808E101306E
S214403E201BBFCBEB090B5944CEF80090196019F034
S214403E30070100F00781C1F10800C1F580518144B7
S214403E4008314A44C2F30B02C2EB010A51463046DF
S214403E50019300F097FC431C019B00F02C81C9EBBA
S214403E600002524442F001021968C7F808905144D3
S214403E70BC42C9F804201960DFF89CA016D0B8F1FF
S214403E800F0F40F2EE806268A8F10C0323F00703A0
S214403E90E01802F001024FF0050E1A430F2B626045
S214403EA0C0F804E0C0F808E000F209811B4BBC688B
S214403EB01A68914288BF1960194B1A689142626825
S214403EC088BF196022F003029542A2EB050301D891
S214403ED00F2B04DC304600F05DFA0024AAE6621997
S214403EE043F0010345F0010565603046BA60536013
S214403EF000F050FA0834204603B0BDE8F08F14288E
S214403F0068D9542800F29780280B6E304100A5E609
S214403F105C0400201C09002020090020180900200D
S214403F2014090020680800205A0A042A55D9142A81
S214403F3000F2A7805B324FEA420C07EB8C0CDFF8AE
S214403F40BC81DCF8081061457FD04A6822F0030245
S214403F50934202D289688C45F7D1CA687B68E26092
S214403F60A1609460CC60BBE6631942F0010745F05F
S214403F700105656030464B610B61C3F80CE0C3F841
S214403F8008E05F609A50083400F004FA52E64B6846
S214403F90A6E609F1010919F0030F0CF1080C7FF4AD
S214403FA0B1AE2CE004F108036469A34208BF0230B6
S214403FB03FF469AE2EE61A441C465168DB6854F856
S214403FC0085F41F0010151603046EB609D6000F0B3
S214403FD0E1F92FE65B30410040E69A0938324FEA75
S214403FE0420CAAE7BC42454B3FF40EAF9C68626861
S214403FF022F0030268E7D8F8008098457CD110F09C
S214404000030FA8F1080300F1FF30F4D17B6823EAE0
S21440401004037B6064009C423FF6CAAE002C3FF42B
S214404020C7AE234248467FF469AE6400234200F19F
S2144040300400FAD062E6B0F5AA7F18D8E80B7730CD
S21440404041000BE64FF48051FBE6D8F8043092105E
S2144040504FF0010C0CFA02F21343C8F804300A463B
S2144040607DE70123C9F804304C4600222CE740F295
S214404070545398421CD8A80C7C304100EEE51032D0
S214404080B4E6542A23D81A0B6E324FEA420C54E751
S214404090BC68626822F0030216E7CBF30B000028E8
S2144040A07FF4B9AE4244BB6842F001025A60FDE676
S2144040B0FC217E20D2E501224FF0000AD4E604F12E
S2144040C008013046FFF77AFADAF80010EEE6B2F565
S2144040D0AA7F04D8DA0B77324FEA420C2DE740F23B
S2144040E054518A4204D89A0C7C324FEA420C24E758
S2144040F04FF0FC0C7E2220E77B688BE75C040020B8
S214404100830770B4C9B240D0541E002A3FD003780B
S2144041108B4218BF431C06D11DE0F4B102788A4298
S21440412004F1FF3417D013F0030F184603F10103D0
S214404130F3D1032C14D884B103788B420BD00519E5
S214404140431C02E002788A4205D0AB42184603F18F
S2144041500103F7D1002070BC7047204670BC704702
S21440416041EA0126024646EA0646104604320368FD
S2144041707340A3F1013525EA030313F0803FDAD1FB
S214404180043C032C1046F0D8D5E71446D1E7104639
S214404190E1E700BF844641EA000313F003036DD114
S2144041A0403A41D351F8043B40F8043B51F8043BB5
S2144041B040F8043B51F8043B40F8043B51F8043BBC
S2144041C040F8043B51F8043B40F8043B51F8043BAC
S2144041D040F8043B51F8043B40F8043B51F8043B9C
S2144041E040F8043B51F8043B40F8043B51F8043B8C
S2144041F040F8043B51F8043B40F8043B51F8043B7C
S21440420040F8043B51F8043B40F8043B51F8043B6B
S21440421040F8043B51F8043B40F8043B51F8043B5B
S21440422040F8043B403ABDD2303211D351F8043BFB
S21440423040F8043B51F8043B40F8043B51F8043B3B
S21440424040F8043B51F8043B40F8043B103AEDD2AA
S2144042500C3205D351F8043B40F8043B043AF9D2FB
S214404260043208D0D2071CBF11F8013B00F8013BCE
S21440427001D30B8803806046704700BF082A13D3DB
S2144042808B078DD010F003038AD0C3F10403D21AF3
S214404290DB071CBF11F8013B00F8013B80D331F827
S2144042A0023B20F8023B7BE7043AD9D3013A11F8A7
S2144042B0013B00F8013BF9D20B7803704B78437012
S2144042C08B788370604670478842F0B50DD98B185E
S2144042D098420AD28118002A54D09A1A13F8014DEF
S2144042E001F8014D9342F9D1F0BD0F2A48D940EA72
S2144042F001039B0747D100F1100401F11003154656
S21440430053F8106C44F8106C53F80C6C44F80C6C72
S21440431053F8086C44F8086C103D53F8046C44F8A5
S214404320046C0F2D03F1100304F11004E8D8A2F139
S214404330100323F00F0302F00F0E1033BEF1030FED
S2144043401944034421D91E1F0D467446043C55F8B3
S214404350047B46F8047F032CF8D8AEF1040424F01E
S214404360030404342344214402F0030252B1013BC7
S2144043700A4411F8014B03F8014F9142F9D1F0BDC0
S2144043800346F3E7F0BD0346F1E77246EEE700BFAB
S214404390704700BF704700BF2DE9F04F174683B007
S2144043A00E46002900F0E780814607F10B05FFF72F
S2144043B0EFFF56F8043C162D23F00304A6F1080838
S2144043C04CD810221546AF424DD8944280F2848095
S2144043D0DFF8ACB3DBF8080008EB0401884200F0D5
S2144043E0D680486820F0010E8E44DEF804E01EF0C9
S2144043F0010F3FD120F003002044904280F2C1805C
S214404400DB0700F18F8056F8083CC3EB080ADAF861
S214404410043023F0030300EB030E964534DBCB68F1
S2144044208A685746D3609A6057F8081FDAF80C3007
S214404430CB60221F242A996000F23681132A40F26C
S214404440FD803368CAF808307368CAF80C301B2AF7
S21440445000F2408108360AF11003F0E025F0070527
S214404460002D2A46AFDA0C230020C9F8003003B0EE
S214404470BDE8F08FD90755D456F8083CC3EB080A78
S214404480DAF8043023F00303234493424ADB5746CA
S214404490DAF80C1057F8080F221F242AC1608860EB
S2144044A000F20E81132A40F209813168CAF80810DA
S2144044B07168CAF80C101B2A00F2218108360AF1EE
S2144044C010023168116071685160B16891601C4695
S2144044D0DAF804303E46D046621B0F2A03F001034A
S2144044E00ED823434444C8F80430636843F00103BD
S2144044F063604846FFF74EFF304603B0BDE8F08F96
S21440450008EB05011D4342F001030A44C8F8045075
S2144045104B60536843F00103083153604846FFF749
S2144045204DF8E6E739464846FFF758FB0746D8B108
S21440453056F8043C23F001024244A0F1080191429F
S21440454000F0AC80221F242A00F29980132A6AD8F1
S21440455003463246116819605168596092689A60FD
S21440456031464846FFF72AF84846FFF713FF3846D5
S21440457003B0BDE8F08F114603B0BDE8F04FFFF73B
S2144045802DBBCA6889680446CA609160A4E7416842
S21440459021F00301214405F1100081425BDADB077C
S2144045A0C0D456F8083CC3EB080ADAF8043023F0C7
S2144045B0030301EB030C60453FF766AF5746DAF856
S2144045C00C3057F8081F221F242ACB60996000F24F
S2144045D0B880132A40F2A9803368CAF80830736856
S2144045E0CAF80C301B2A00F2B58008360AF11003D0
S2144045F032681A6072685A60B2689A600AEB0502BE
S214404600C5EB0C0343F00103CBF808205360DAF8FF
S214404610043003F001031D434846CAF80450FFF730
S214404620B9FE384669E733680360736843601B2AFF
S21440463029D800F1080306F108028BE73B463268AA
S2144046401A6072685A60B2689A603E467446DAF8F3
S2144046500430D04640E708EB05024B1B43F001030D
S214404660CBF80820536056F8043C03F001031D4382
S214404670484646F8045CFFF78DFE30463DE7314637
S214404680FFF722FE6CE7B3688360F368C360242AB2
S2144046902CD000F1100306F110025BE750F8042C12
S2144046A022F00302144417E73146384674463E4625
S2144046B0FFF70AFED046DAF804300DE73A4600E740
S2144046C0314638461C463E46FFF7FEFDD046DAF8F1
S2144046D0043001E7B368CAF81030F368CAF81430FB
S2144046E0242A18D010360AF11803A8E73369036164
S2144046F07369436106F1180200F118032AE7B168AE
S214404700CAF81010F168CAF81410242A0FD01036D0
S2144047100AF11802D5E63369CAF818307369CAF840
S2144047201C3018360AF1200389E73B4660E73269B9
S214404730CAF818207269CAF81C2018360AF12002F6
S214404740BFE631463846CDF804C0FFF7BDFDDDF87C
S21440475004C053E7B368CAF81030F368CAF8143098
S214404760242A03D010360AF1180341E73369CAF801
S21440477018307369CAF81C3018360AF1200337E738
S2144047805C04002038B5074C0023054608462360E5
S214404790FCF7A0FF431C00D038BD2368002BFBD09D
S2144047A02B6038BD6409002010B50C46B1F90E10D8
S2144047B000F0BCF9002803DB236D0344236510BDDD
S2144047C0A38923F48053A38110BD00BF2DE9F04197
S2144047D016468A891D46D3050C46074606D500224E
S2144047E0B1F90E10022300F08DF9A289B4F90E102B
S2144047F022F48052A281384632462B46BDE8F0412C
S21440480000F0A0B810B50C46B1F90E1000F07AF9D9
S214404810A389421C0EBF23F4805343F48053206583
S214404820A38110BDB1F90E1000F0F2B870B50D4678
S2144048301446064610B1836B002B48D0A289A36964
S214404840A36091B2080738D52369002B35D0890478
S214404850EDB215D522686169D31A8B421CDA013352
S214404860A168501C0139A1602060157062699A42A7
S2144048701AD0A389DB0701D50A2D15D0284670BD6E
S214404880616E42F4005221F40051A28122686166B2
S2144048906169D31A8B42E2DB30462146FEF722FDA1
S2144048A040B922680123DBE730462146FEF71AFD71
S2144048B00028E3D04FF0FF3070BD30462146FEF76B
S2144048C0F5FB0028F6D1A289236991B2BFE7FEF72F
S2144048D09DFDB3E72DE9F041054686B01E460C46E1
S2144048E0A1B1104B1746D3F80080FFF7F5F80096B5
S2144048F0034621463A462846C047431C03D1002279
S2144049008A2332602B6006B0BDE8F081054B1F68F5
S214404910FFF7E2F8009603462246284603A9B84722
S214404920EBE700BF6C08002021B1FF2A04D80A70CC
S21440493001207047084670478A2303604FF0FF30D7
S214404940704700BF70B5084C06460025084611461D
S2144049501A462560FBF7BAFD431C00D070BD23689D
S214404960002BFBD0336070BD640900202DE9F04772
S214404970254C2568D5F848410646884692469946CD
S214404980CCB360681F2818DC431C7EB104EB80055E
S2144049900121C5F888A0D4F8887101FA00F21743BF
S2144049A0022EC4F88871C5F808911ED002306360A4
S2144049B044F820800020BDE8F087144B03B34FF442
S2144049C0C870FFF703F90446D0B1D5F84831002740
S2144049D080E88800C5F8484138460123C4F8887105
S2144049E0C4F88C71002EE1D0D0E7D4F88C110A437D
S2144049F0C4F88C21DAE705F5A674C5F84841C0E747
S214404A004FF0FF30BDE8F087B4514000CD3B40004A
S214404A1038B5074C0023054608462360FCF786FE5B
S214404A20431C00D038BD2368002BFBD02B6038BD1C
S214404A306409002000293DD070B505460C4608B1F3
S214404A40836B7BB3B4F90C300BB9002070BD28469D
S214404A502146FEF79DFBE36A064633B12846E169E8
S214404A6098470028B8BF4FF0FF36A3891B061CD4D2
S214404A70216B41B104F14003994202D02846FEF72B
S214404A809DFD00232363616C21B12846FEF796FD09
S214404A9000236364FEF7C0FC0023A381FEF7BEFC40
S214404AA0304670BDFEF7B2FCCCE728462169FEF7DB
S214404AB085FDDDE70020704738B5084C00230546E5
S214404AC0084611462360FCF73DFE431C00D038BD27
S214404AD02368002BFBD02B6038BD00BF6409002044
S214404AE038B5074C0023054608462360FCF73AFED7
S214404AF0431C00D038BD2368002BFBD02B6038BD4C
S214404B006409002070B5084C064600250846114644
S214404B101A462560FCF732FE431C00D070BD236861
S214404B20002BFBD0336070BD6409002070B5084C84
S214404B3006460025084611461A462560FBF79AFCAD
S214404B40431C00D070BD2368002BFBD0336070BD83
S214404B506409002053B94AB9002908BF00281CBF81
S214404B604FF0FF314FF0FF3000F03CB882B0EC46DB
S214404B702DE9005000F01EF8DDF804E002B00CBC51
S214404B80704700BF2DE9F041069C154606460F4685
S214404B90984600F029F805FB01F300FB0838A5FB12
S214404BA00023B21A434467EB0303C4E90023BDE87D
S214404BB0F08100BF2DE9F041069C904606460F4620
S214404BC01D4600F05FF900FB05F5A0FB082308FB37
S214404BD00155B21A2B4467EB0303C4E90023BDE832
S214404BE0F08100BF704700BF00292DE9F043C0F2B6
S214404BF0A6800026002BC0F29C80884694469E469F
S214404C00154604460F46002B3DD18A4259D9B2FA82
S214404C1082F33BB1C3F120029F4020FA02F29D404E
S214404C2017439C40290C220CB7FBF1FEA8B201FBAF
S214404C301E7742EA074700FB0EF3BB420AD97F19AC
S214404C400EF1FF3280F00581BB4240F20281AEF1A8
S214404C50020E2F44FF1AA4B2B7FBF1F301FB137701
S214404C6044EA074700FB03F0B84208D97F1903F12E
S214404C70FF3280F0F080B84240F2ED80023B43EADB
S214404C800E43002203E08B420FD900221346341C09
S214404C9018BF012460424FF0000565EB45015840BF
S214404CA0514000196941BDE8F083B3FA83F2002A07
S214404CB040F086808B4202D3844500F2DB8001239D
S214404CC0E5E712B90123B3FBF2F5B5FA85F0002803
S214404CD03BD1781B4FEA154E1FFA85FC0122B0FBEC
S214404CE0FEF8210C0EFB180741EA07470CFB08F3B9
S214404CF0BB4207D97F1908F1FF3102D2BB4200F20E
S214404D00BD808846FF1AA4B2B7FBFEF30EFB1377AE
S214404D1044EA07470CFB03FCBC4507D97F1903F15F
S214404D20FF3102D2BC4500F2A7800B4643EA084357
S214404D30ADE752426FEA060663EB43035DE7404247
S214404D4061EB41014FF0FF3654E7C0F1200224FAF0
S214404D5002F107FA00F385404FEA154ED740194353
S214404D60B7FBFEF20B0C0EFB12771FFA85FC43EAEC
S214404D7007430CFB02F79F4204FA00F407D95B197D
S214404D8002F1FF3074D29F4272D9023A2B44DF1BA5
S214404D9089B2B7FBFEF80EFB187341EA03430CFBDF
S214404DA008F79F4208D95B1908F1FF315CD29F4251
S214404DB05AD9A8F102082B44D81B48EA02428EE78B
S214404DC0C2F120032CFA03F10EFA02FE20FA03F792
S214404DD041EA0E0E08FA02F028FA03F14FEA1E45A1
S214404DE03843B1FBF5F8030C05FB18111FFA8EF794
S214404DF043EA014107FB08F38B420CFA02FC09D94F
S214404E0011EB0E0108F1FF3930D28B422ED9A8F1B2
S214404E1002087144C91A80B2B1FBF5F305FB1311C1
S214404E2040EA014107FB03F78F4208D911EB0E0118
S214404E3003F1FF3016D28F4214D9023B714443EA45
S214404E400843C91BA3FB0C89494509D305D000225A
S214404E501DE79646FEE6134611E794404445F6D2D3
S214404E60013BF4E70346EAE78846A5E7C846D1E7AC
S214404E7002468CE713460AE7023B57E7A8F10208CA
S214404E802F443FE72DE9F041002B44D18A42154696
S214404E9004464FD9B2FA82F70E464FB1C7F1200307
S214404EA0B94020FA03F602FA07F50E4300FA07F473
S214404EB04FEA154E230CB6FBFEF0AFB20EFB106168
S214404EC043EA014307FB00F1994209D95B1900F117
S214404ED0FF3280F0EC80994240F2E98002382B4461
S214404EE05A1AA4B2B2FBFEF30EFB132244EA024265
S214404EF007FB03F7974208D9521903F1FF3180F0B8
S214404F00D880974240F2D580023B43EA00400026D4
S214404F103146BDE8F0818B4247D8B3FA83F6002E7F
S214404F2048D18B4202D3824200F2CD8001203146E6
S214404F30BDE8F08112B90125B5FBF2F5B5FA85F862
S214404F40B8F1000F77D14A1B4FEA154EAFB2012693
S214404F50B2FBFEF0230C0EFB102143EA014107FB97
S214404F6000F38B4207D9491900F1FF3202D28B4237
S214404F7000F2BA801046C91AA4B2B1FBFEF30EFB8B
S214404F80131144EA014407FB03F7A74208D9641902
S214404F9003F1FF3280F08F80A74240F28C80023BC4
S214404FA043EA00403146BDE8F081002630463146AF
S214404FB0BDE8F081C6F1200422FA04F5B3402B4345
S214404FC020FA04FC01FA06F721FA04F54FEA134EDC
S214404FD04CEA0707B5FBFEF8390C0EFB18551FFACE
S214404FE083FC41EA05450CFB08F1A94202FA06F2A9
S214404FF004D9ED1808F1FF3467D3A0466D1ABFB246
S214405000B5FBFEF40EFB145547EA05410CFB04FCC9
S2144050108C4504D9C91804F1FF355CD32C4644EAC4
S2144050200844CCEB0101A4FB0223994248D344D068
S214405030204600266CE7C8F1200401FA08F305FA7A
S21440504008F520FA04F7E1404FEA154E1F43B1FB3E
S214405050FEF63A0C0EFB16111FFA85FC42EA014397
S2144050600CFB06F29A4200FA08F407D95B1906F1DF
S214405070FF3137D29A4235D9023E2B449B1ABFB2F3
S214405080B3FBFEF00EFB103347EA03430CFB00F184
S214405090994207D95B1900F1FF3221D299421FD9B4
S2144050A002382B445A1A40EA0646674650E71046EE
S2144050B016E70B4629E7134672E7B0409042B7D250
S2144050C0601E002624E7304622E7A94295D9A8F17B
S2144050D002081D4492E78C45A0D9023C19449EE73D
S2144050E01046DFE70E46C9E70238294443E700BFCB
S2144050F02031203A206578696265206E6F76616D52
S214405100656E74652065737365206D656E75200ADF
S2144051100D000000202D2D2D2D2D2D2D2D2D2D2D2E
S2144051202D2D2D2D2D2D2D2D2D2D2D2D2D2D2D2D6A
S2144051302D200A0D2042656D2076696E646F2074BE
S214405140657272617175696F202109090A0D202DFB
S2144051502D2D2D2D2D2D2D2D2D2D2D2D2D2D2D2D3A
S2144051602D2D2D2D2D2D2D2D2D2D2D200A0D0000D4
S214405170754320726563656265753A202573200A1B
S214405180000000004F7065726163616F20696E7643
S214405190616C6964610A00004F7063616F206465EA
S2144051A0206C656420696E76616C69646F0A0000E5
S2144051B043000000080000200A0000003030303075
S2144051C03030303030303030303030303031323394
S2144051D034353637383941424344454600000000AE
S2144051E03031323334353637383961626364656618
S2144051F000000000286E756C6C29000020202020DE
S2144052002020202020202020202020200020202079
S2144052102020202020202828282828202020202021
S21440522020202020202020202020202020881010F1
S214405230101010101010101010101010100404044D
S214405240040404040404041010101010101041410B
S21440525041414141010101010101010101010101F9
S214405260010101010101010110101010101042420D
S21440527042424242020202020202020202020202C9
S2144052800202020202020202101010102000000069
S21440529000000000000000000000000000000000C9
S2144052A000000000000000000000000000000000B9
S2144052B000000000000000000000000000000000A9
S2144052C00000000000000000000000000000000099
S2144052D00000000000000000000000000000000089
S2144052E00000000000000000000000000000000079
S2144052F00000000000000000000000000000000069
S2144053000000000000000000000000000000000058
S214405310F8B500BFF8BC08BC9E46704771314000E7
S214405320F1004000F8B500BFF8BC08BC9E46704788
S208405330CD00400027
S20C405334B4F8FF7F0100000001
S21440533C00093D000000000000000000F4020020C0
S21440534C5C030020C40300200000000000000000A6
S21440535C00000000000000000000000000000000FC
S21440536C000000000000000000000000B0514000AB
S21440537C00000000000000000000000000000000DC
S21440538C00000000000000000000000000000000CC
S21440539C00000000000000000000000000000000BC
S2144053AC00000000000000000000000000000000AC
S2144053BC000000000000000000000000000000009C
S2144053CC000000000000000000000000000000008C
S2144053DC000000000000000000000000000000007C
S2144053EC01000000000000000E33CDAB34126DE619
S2144053FCECDE05000B000000000000000000000082
S21440540C000000000000000000000000000000004B
S21440541C000000000000000000000000000000003B
S21440542C000000000000000000000000000000002B
S21440543C000000000000000000000000000000001B
S21440576C080000200C5240004153434949000000B9
S21440577C00000000000000000000000000000000D8
S21440578C00000000000000000100000000000000C7
S21440579C000000005C0400205C0400206404002030
S2144057AC640400206C0400206C0400207404002068
S2144057BC740400207C0400207C0400208404002018
S2144057CC840400208C0400208C04002094040020C8
S2144057DC940400209C0400209C040020A404002078
S2144057ECA4040020AC040020AC040020B404002028
S2144057FCB4040020BC040020BC040020C4040020D8
S21440580CC4040020CC040020CC040020D404002087
S21440581CD4040020DC040020DC040020E404002037
S21440582CE4040020EC040020EC040020F4040020E7
S21440583CF4040020FC040020FC0400200405002096
S21440584C040500200C0500200C0500201405002043
S21440585C140500201C0500201C05002024050020F3
S21440586C240500202C0500202C05002034050020A3
S21440587C340500203C0500203C0500204405002053
S21440588C440500204C0500204C0500205405002003
S21440589C540500205C0500205C05002064050020B3
S2144058AC640500206C0500206C0500207405002063
S2144058BC740500207C0500207C0500208405002013
S2144058CC840500208C0500208C05002094050020C3
S2144058DC940500209C0500209C050020A405002073
S2144058ECA4050020AC050020AC050020B405002023
S2144058FCB4050020BC050020BC050020C4050020D3
S21440590CC4050020CC050020CC050020D405002082
S21440591CD4050020DC050020DC050020E405002032
S21440592CE4050020EC050020EC050020F4050020E2
S21440593CF4050020FC050020FC0500200406002091
S21440594C040600200C0600200C060020140600203E
S21440595C140600201C0600201C06002024060020EE
S21440596C240600202C0600202C060020340600209E
S21440597C340600203C0600203C060020440600204E
S21440598C440600204C0600204C06002054060020FE
S21440599C540600205C0600205C06002064060020AE
S2144059AC640600206C0600206C060020740600205E
S2144059BC740600207C0600207C060020840600200E
S2144059CC840600208C0600208C06002094060020BE
S2144059DC940600209C0600209C060020A40600206E
S2144059ECA4060020AC060020AC060020B40600201E
S2144059FCB4060020BC060020BC060020C4060020CE
S214405A0CC4060020CC060020CC060020D40600207D
S214405A1CD4060020DC060020DC060020E40600202D
S214405A2CE4060020EC060020EC060020F4060020DD
S214405A3CF4060020FC060020FC060020040700208C
S214405A4C040700200C0700200C0700201407002039
S214405A5C140700201C0700201C07002024070020E9
S214405A6C240700202C0700202C0700203407002099
S214405A7C340700203C0700203C0700204407002049
S214405A8C440700204C0700204C07002054070020F9
S214405A9C540700205C0700205C07002064070020A9
S214405AAC640700206C0700206C0700207407002059
S214405ABC740700207C0700207C0700208407002009
S214405ACC840700208C0700208C07002094070020B9
S214405ADC940700209C0700209C070020A407002069
S214405AECA4070020AC070020AC070020B407002019
S214405AFCB4070020BC070020BC070020C4070020C9
S214405B0CC4070020CC070020CC070020D407002078
S214405B1CD4070020DC070020DC070020E407002028
S214405B2CE4070020EC070020EC070020F4070020D8
S214405B3CF4070020FC070020FC0700200408002087
S214405B4C040800200C0800200C0800201408002034
S214405B5C140800201C0800201C08002024080020E4
S214405B6C240800202C0800202C0800203408002094
S214405B7C340800203C0800203C0800204408002044
S214405B8C440800204C0800204C08002054080020F4
S214405B9C5408002000000200FFFFFFFF2949400088
S8044013A9FF
