:020000040040BA
:10000000D8340020DD104000A5114000A5114000AB
:10001000A5114000A5114000A511400000000000FE
:10002000000000000000000000000000A5114000DA
:10003000A511400000000000A5114000A5114000DE
:10004000A5114000A5114000A5114000A5114000D8
:10005000A5114000A5114000A5114000A5114000C8
:10006000A5114000A511400000000000FD07400060
:10007000150840002D084000A5114000A5114000C2
:100080000000000000000000A5114000A511400084
:10009000A5114000A5114000A511400041164000E7
:1000A000A5114000A5114000A5114000A511400078
:1000B000A5114000A5114000A5114000A511400068
:1000C000A5114000A5114000A511400010B5054C38
:1000D000237833B9044B13B10448AFF300800123F4
:1000E000237010BD3804002000000000642140008F
:1000F000084B10B51BB108480849AFF30080084809
:10010000036803B910BD074B002BFBD0BDE81040BE
:10011000184700BF00000000642140003C0400209C
:10012000642140000000000080B582B000AF78601C
:100130007B68072B30D801A252F823F099014000C8
:100140005D014000650140006D0140007501400007
:100150007D014000850140008F0140000020104BD0
:10016000984719E001200E4B984715E000200D4BF1
:10017000984711E010200B4B98470DE02020094BC9
:10018000984709E000203E21074B984704E00120F2
:100190003E21054B984700BF0837BD4680BD00BFD4
:1001A000C908400035094000A509400080B582B06B
:1001B00000AF78607B68072B26D801A252F823F0A5
:1001C000E1014000E5014000E5014000F701400089
:1001D000F7014000F7014000F7014000F70140003F
:1001E000012312E00B4B98470346002B14BF012359
:1001F0000023DBB209E0084B98470346002B14BFED
:1002000001230023DBB200E0002318460837BD4677
:1002100080BD00BF010940001D0A400080B483B0CA
:1002200000AF78607B68072B25D801A252F823F035
:1002300051024000570240005D024000630240004E
:10024000670240006B0240006F02400073024000F2
:100250004FF4FA4310E04FF400430DE04FF4004335
:100260000AE0084B08E0084B06E0084B04E0074BA7
:1002700002E0064B00E0002318460C37BD465DF84F
:10028000047B704700093D0000127A00001BB70094
:1002900080B582B000AF0346FB7100BFFB79184602
:1002A000054B9847034683F00103DBB2002BF5D1E1
:1002B0000837BD4680BD00BFAD01400080B586B0A7
:1002C00000AFF8607A603B600B46FB72FB7A184621
:1002D0000D4B984702467B68B2FBF3F37B617B6969
:1002E0003A6802FB03F37B613B68013B1A04074B4E
:1002F00013407A68D2B2134343F47C52FB681A600D
:100300001837BD4680BD00BF1D0240000000FF073A
:1003100080B582B000AF786039603B68002B08D1AF
:10032000084B9847084A7B681B6843F00053936268
:1003300005E0064B9847044A7B681B68D362083780
:10034000BD4680BD390A400000040E406D0A4000E1
:1003500080B582B000AF78607B68002B03D1054B7D
:100360009847034602E0044B98470346184608376F
:10037000BD4680BD510A4000850A400080B582B06C
:1003800000AF0346FB71FB79033B042B08D8FB79D4
:100390001846054B9847FB791846044B984700E0F0
:1003A00000BF0837BD4680BD2901400091024000D2
:1003B00080B582B000AF786000BF7868044B984782
:1003C0000346002BF9D0002318460837BD4680BDF0
:1003D0005103400080B500AF0620044B9847024609
:1003E00013469B0013449B00184680BD1D0240002D
:1003F00080B500AF024B984703465B08184680BDA6
:10040000D503400090B583B000AF1148114B984719
:100410000620114B98473B1D184606210122142344
:100420000E4CA0473B1D184600210D4B984700205D
:100430000C4B984710200C4B98470C4B98470C4B93
:10044000984703461846034B98470C37BD4690BD66
:10045000000E2707491340007D034000BD02400005
:1004600011034000B103400045084000AD114000B9
:10047000F103400080B485B000AFF860B9607A60E5
:100480007B68002B03D0FB68BA685A6602E0FB6801
:10049000BA681A661437BD465DF8047B704700BF22
:1004A00080B485B000AFF860B9607A60FB68BA6864
:1004B000C3F884207B685B004FF40042B2FBF3F387
:1004C000013BC3F30D02FB68C3F88C201437BD4613
:1004D0005DF8047B704700BF80B483B000AF7860E4
:1004E00039607B683A681A630C37BD465DF8047B57
:1004F000704700BF80B483B000AF786039607B681C
:100500003A685A630C37BD465DF8047B704700BFFC
:1005100080B584B000AFF860B9607A60F868B968F7
:10052000184B98477B6803F00103F868B9681A46CE
:10053000154B98477B6803F00A03002B03D0FB6838
:10054000BA681A6202E0FB68BA685A627B6803F014
:100550000203002B04D0FB68BA68C3F8802008E0CF
:100560007B6803F00803002B03D0FB68BA68C3F86C
:100570008420FB68BA685A61FB68BA681A60103751
:10058000BD4680BD7D0640007504400080B584B046
:1005900000AFF860B9607A603B60F868B968124BE8
:1005A0009847F868B968BA69104B98473B68002BC0
:1005B00003D0FB68BA681A6502E0FB68BA685A653E
:1005C0007B68002B03D0FB68BA681A6302E0FB6803
:1005D000BA685A63FB68BA681A61FB68BA681A603D
:1005E0001037BD4680BD00BF7D0640007504400049
:1005F00080B485B000AFF860B9607A607B6803F0C2
:100600001003002B20D0FB68BA68C3F8B0207B68C9
:1006100003F02003002B04D0FB68BA68C3F8D42091
:1006200003E0FB68BA68C3F8D0207B6803F040039E
:10063000002B04D0FB68BA68C3F8C02008E0FB6850
:10064000BA68C3F8C42003E0FB68BA68C3F8B420F2
:100650001437BD465DF8047B704700BF80B483B09B
:1006600000AF786039607B68DB6C7B683A681A643D
:100670000C37BD465DF8047B704700BF80B483B083
:1006800000AF786039607B683A685A640C37BD46C1
:100690005DF8047B704700BF80B483B000AF786022
:1006A0007B68DB6C18460C37BD465DF8047B7047F1
:1006B00080B483B000AF78607B689B6C18460C37C1
:1006C000BD465DF8047B704780B584B000AF7860AC
:1006D000396078682A4B9847F8607868294B9847C2
:1006E0000246FB681340FB60FB68002B38D00023F8
:1006F000BB6032E0244ABB681B0113441A683B68A4
:100700009A4223D1204ABB681B0113445A68FB68F4
:100710001340002B1AD01C4ABB681B01134408333A
:100720005B681949BA6812010A4410681649BA6828
:1007300012010A44526811469847134ABB681B01CC
:1007400013445B68DB43FA681340FB60BB6801330A
:10075000BB60BB68062B00D902E0FB68002BC9D147
:100760000A4B1B68002B07D0094B1B68002B03D0DA
:10077000074B1B68786898471037BD4680BD00BF9F
:1007800099064000B106400054040020D404002023
:10079000C804002080B586B000AFF860B9607A6008
:1007A0003B60134B1B68062B01D901231CE0104B47
:1007B0001B681B010F4A13447B617B69BA681A608E
:1007C0007B697A685A607B693A689A607B693A6AA1
:1007D000DA60074B1B680133054A1360F8687968D3
:1007E0003A68054B9847002318461837BD4680BD28
:1007F000C404002054040020F105400080B500AF7F
:1008000002480B21024B984780BD00BF000E0E40EE
:10081000C906400080B500AF02480C21024B984742
:1008200080BD00BF00100E40C906400080B500AF7B
:1008300002480D21024B984780BD00BF00120E40B8
:10084000C906400080B485B000AF78601D491D4BDB
:100850001B6B23F070027B6813430B634FF4006340
:10086000FB6007E0FB68002B01D1012323E0FB685C
:10087000013BFB60134B9B6E03F00803002BF1D090
:10088000104A104B1B6B23F0030343F00203136366
:100890004FF40063FB6007E0FB68002B01D10123EC
:1008A00009E0FB68013BFB60064B9B6E03F008030D
:1008B000002BF1D0002318461437BD465DF8047BA9
:1008C000704700BF00040E4080B483B000AF786072
:1008D0007B68012B07D1084A074B9B6843F02543EF
:1008E00043F480139360044B044A1A600C37BD46EE
:1008F0005DF8047B704700BF10140E40080000A58F
:1009000080B400AF094B5B6903F08003002B07D074
:10091000074B9B6E03F08003002B01D0012300E006
:1009200000231846BD465DF8047B704710140E4046
:1009300000040E4080B483B000AF7860184A184BB2
:100940001B6A43F45C1343F00803136200BF144BAB
:100950009B6E03F40033002BF9D01149104B1B6A36
:1009600023F45C1323F070037A68134343F45C139D
:100970000B6200BF0A4B9B6E03F40033002BF9D0CF
:10098000074A074B1B6A23F09B7323F4803343F41D
:100990005C1313620C37BD465DF8047B704700BFE3
:1009A00000040E4080B483B000AF786039607B688B
:1009B000002B08D01649164B1B6A164A1A40164BD4
:1009C00013430B621EE01249114B1B6A23F45C13A4
:1009D00023F003033A68120292B2134343F45C1308
:1009E00043F001030B6200BF094B9B6E03F0010350
:1009F000002BF9D0064A064B1B6A43F09B7343F465
:100A0000803313620C37BD465DF8047B704700BF2E
:100A100000040E40FCFFC8FE0200370180B400AFA6
:100A2000044B9B6E03F480331846BD465DF8047B8F
:100A3000704700BF00040E4080B400AF034B4FF07E
:100A400000529A62BD465DF8047B704700040E4078
:100A500080B400AF044B9B6E03F002031846BD4602
:100A60005DF8047B704700BF00040E4080B400AF07
:100A7000034B0022DA62BD465DF8047B704700BF7D
:100A800000040E4080B400AF044B9B6E03F00403DF
:100A90001846BD465DF8047B704700BF00040E4059
:100AA00080B483B000AF78607B68222B01D901232A
:100AB0002FE07B681F2B13D8194B9A697B680121A3
:100AC00001FA03F31A407B68012101FA03F39A4209
:100AD0001ED0134A7B68012101FA03F3136117E06A
:100AE0007B68203B7B600E4BD3F808217B6801219B
:100AF00001FA03F31A407B68012101FA03F39A42D9
:100B000006D0074A7B68012101FA03F3C2F80031DD
:100B1000002318460C37BD465DF8047B704700BFC4
:100B200000040E4080B483B000AF7860034A7B6855
:100B300013600C37BD465DF8047B7047040000204D
:100B400080B483B000AF214B1B6F7B607B6823F4C4
:100B5000C0037B601E4B1B687A6813437B601B4A93
:100B60007B681367194A194B1B6A43F45C1343F003
:100B70000403136200BF154B9B6E03F00803002BA8
:100B8000F9D000237B6003E000BF7B6801337B600A
:100B90007B68B3F5FA7FF7D300BF0C4B1B6A03F0F9
:100BA0000803002BF9D0094B1B6F7B607B6823F493
:100BB000C0037B607B6843F480037B60034A7B68EF
:100BC00013670C37BD465DF8047B704700040E4088
:100BD00004000020B0B59CB000AF78607B68013B9A
:100BE000042B00F2DE8101A252F823F0010C400038
:100BF000010C40001D0C40001D0C4000810F400006
:100C0000804A804B1B6923F0040313617E4B012251
:100C10001A70BFF35F8F62B630BFC2E17B68032BEF
:100C200003D10020794B984703E04FF40010774B35
:100C3000984772B6BFF35F8F734B00221A70744BE4
:100C400001221A707B68042B0CBF01230023DAB247
:100C500007F12003FB6607F11C03BB6607F11803CD
:100C60007B6607F114033B6607F11003FB6507F190
:100C70000C03BB65134687F85730664B1B6A3B6510
:100C8000644B1B6BFB64644B1B68BB64634B1B684E
:100C90007B64FB6E002B02D0FB6E3A6D1A60BB6E5C
:100CA000002B03D05B4B9A6ABB6E1A607B6E002BE5
:100CB00003D0584BDA6A7B6E1A603B6E002B02D071
:100CC0003B6EFA6C1A60FB6D002B02D0FB6DBA6CA8
:100CD0001A60BB6D002B02D0BB6D7A6C1A604D4A56
:100CE0003B6D43F45C1343F008031362FB6C03F0A9
:100CF0000303012B0ED9FB6C23F0030343F0010324
:100D0000FB64444AFB6C1363424B9B6E03F0080385
:100D1000002BF9D0FB6C03F07003002B0CD0FB6CA4
:100D200023F07003FB643B4AFB6C1363394B9B6EEF
:100D300003F00803002BF9D0394B9847394B9847FB
:100D4000344B9B6E03F40033002BF9D0314A314B06
:100D50001B6A23F09B7323F4803343F45C13136208
:100D60002C4B9B6E03F48033002BF9D02A4ABB6CCA
:100D700023F470631360294A7B6C23F4706313605F
:100D800097F85730002B09D0224A224B1B6A23F4D4
:100D90005C1323F0010343F45C1313621A4B01222A
:100DA0001A70BFF35F8F62B61F4B984772B6BFF3DE
:100DB0005F8F154B00221A703D6AFC69B86979692A
:100DC0003A69FB683D64FC63B86379633A63FB622C
:100DD0000023BB623B6C03F00203002B2AD00D49B9
:100DE0000C4B1B6A114A1A40114B13430B62094A00
:100DF000084B1B6A23F45C1323F0780343F45C1361
:100E0000136252E000ED00E000000020250B4000DE
:100E1000CC04002000040E40000A0E40000C0E40DE
:100E2000390A40006D0A4000410B4000FCFFC8FE3B
:100E3000020037013B6C03F00103002B35D05A4B05
:100E40001B6A03F00103002B11D1574A564B1B6A52
:100E500023F45C1323F0030343F45C1343F0010316
:100E60001362514B9B6E03F00103002BF9D04E4BE4
:100E70001B6A03F08073002B0DD14B4A4A4B1B6A4F
:100E800043F09B7343F480331362474B9B6E03F430
:100E90008033002BF9D0444A434B1B6A23F45C1384
:100EA00023F0780343F45C131362FA6B3F4B134057
:100EB000002B08D03C4AFB6B43F000539362BB6AA3
:100EC00043F00203BB62BA6B384B1340002B06D0D1
:100ED000354ABB6BD362BB6A43F00403BB627B6BD6
:100EE00003F00303022B02D0032B07D00CE02E4BA0
:100EF0009B6E03F00203002BF9D005E02A4B9B6E9A
:100F000003F00403002BF9D0274B1B6B7B622649AF
:100F10007B6A23F070027B6B03F0700313430B6357
:100F2000214B9B6E03F00803002BF9D0204A3B6B4A
:100F30001360204AFB6A13601B4A7B6B13631A4BD6
:100F40009B6E03F00803002BF9D0174B9A6EBB6A17
:100F50001340002BF9D0184B00221A70174B1B6856
:100F6000002B05D0154B1B689847144B00221A60C4
:100F7000134B01221A70BFF35F8F62B600BF10E0FF
:100F8000104A104B1B6943F0040313610E4B0F4AC8
:100F90001A600B4B01221A70BFF35F8F62B630BF2D
:100FA00000BF7037BD46B0BD00040E400000FF0713
:100FB000000A0E40000C0E40CC040020D00400209B
:100FC0000000002000ED00E010140E40040000A519
:100FD00080B487B000AFF860B9607A60BB689B01ED
:100FE000FA6813447B617B6902221A607B694FF0C7
:100FF000FF329A627B691B6A7B697A685A601C3788
:10100000BD465DF8047B704780B483B000AF786064
:1010100039607A683B689B01134405221A600C37DB
:10102000BD465DF8047B704780B483B000AF786044
:1010300039607A683B689B01134402221A600C37BE
:10104000BD465DF8047B704780B483B000AF786024
:1010500039607A683B689B01134418335B68184613
:101060000C37BD465DF8047B704700BF80B485B087
:1010700000AFF860B9607A60FA68BB689B011344FE
:1010800018337A685A601437BD465DF8047B7047A0
:1010900080B487B000AFF860B9607A60BB689B012C
:1010A000FA6813447B617B697A685A621C37BD46D3
:1010B0005DF8047B704700BF80B485B000AF7860F6
:1010C00039603B689B017A681344FB60FB681B6ACC
:1010D00018461437BD465DF8047B704780B584B070
:1010E00000AF274BFB60274BBB60FA68BB689A4296
:1010F0000DD907E0BB681A1DBA60FA68111DF960C6
:1011000012681A60BB68204A9342F3D320E0FA6861
:10111000BB689A421CD21C4A1A4BD31A7B60FA68ED
:101120007B681344043BFB60BA687B681344043B50
:10113000BB600AE0BB681A1FBA60FA68111FF96049
:1011400012681A607B68043B7B607B68002BF1D1DE
:1011500000BF0E4BBB6004E0BB681A1DBA600022E2
:101160001A60BB680A4A9342F6D30A4BFB600A4AEC
:10117000FB689360094B9847094B9847FEE700BF0F
:1011800064214000000000203804002038040020C2
:10119000D80400200000400000ED00E0F91F4000EE
:1011A000E917400080B400AFFEE700BF80B400AF95
:1011B0005D4B1B6B03F00303032B00F2968001A22F
:1011C00052F823F0D5114000F51140003F124000C5
:1011D0003F124000554B5B6903F08003002B04D0A5
:1011E000534B4FF400421A6080E0514B4FF4FA42E7
:1011F0001A607BE04C4B1B6A03F08073002B03D01A
:101200004B4B4C4A1A6019E0494B4B4A1A60464B0B
:101210001B6A03F07003102B08D0202B0AD0002B80
:1012200000D00BE0424B444A1A6007E0404B434A6F
:101230001A6003E03E4B3F4A1A6000BF56E03A4B4B
:101240001B6A03F08073002B03D0394B394A1A60B4
:1012500019E0374B384A1A60334B1B6A03F07003AE
:10126000102B08D0202B0AD0002B00D00BE0304BE5
:10127000314A1A6007E02E4B304A1A6003E02C4BCB
:101280002C4A1A6000BF284B1B6B03F00303022B90
:1012900015D1254B9A6A2A4B13401B0C0133244A63
:1012A000126802FB03F3224A13601F4B9B6ADBB2F6
:1012B0001F4A1268B2FBF3F31D4A136016E01A4B83
:1012C000DA6A1F4B13401B0C0133194A126802FBE8
:1012D00003F3174A1360144BDB6ADBB2144A12683B
:1012E000B2FBF3F3124A136000E000BF0E4B1B6B1E
:1012F00003F07003702B08D10D4B1B68114AA2FB41
:1013000003235B080A4A136009E0074B1B6B03F0D9
:1013100070031A09064B1B68D340054A1360BD468B
:101320005DF8047B704700BF00040E4010140E40AF
:1013300008000020001BB70000093D0000127A00E1
:101340000000FF07ABAAAAAA80B483B000AF786000
:101350007B68224A934208D8214B4FF080621A6082
:10136000204B4FF080621A6033E07B681E4A934244
:1013700006D81B4B1D4A1A601A4B1C4A1A6028E0FB
:101380007B681B4A934206D8154B1A4A1A60154BC4
:10139000184A1A601DE07B68174A934206D8104B22
:1013A000164A1A600F4B154A1A6012E07B68144AFD
:1013B000934208D80A4B4FF004221A60094B4FF0B1
:1013C00004221A6005E0064B0E4A1A60054B0D4ACE
:1013D0001A600C37BD465DF8047B7047FF2C310165
:1013E000000A0E40000C0E40FF596202000100048A
:1013F000FF86930300020004FFB3C404000300044B
:10140000FFE0F5050005000480B483B000AF03469B
:10141000FB71084997F907305B09FA7902F01F025E
:10142000012000FA02F241F823200C37BD465DF896
:10143000047B704700E100E080B483B000AF034656
:101440003960FB7197F90730002B0BDA0D49FB79F6
:1014500003F00F03043B3A68D2B21201D2B20B443C
:101460001A7609E0084997F907303A68D2B21201B2
:10147000D2B20B4483F800230C37BD465DF8047BE1
:10148000704700BF00ED00E000E100E080B483B0F1
:1014900000AF78607B68072B25D801A252F823F0B3
:1014A000C1144000C7144000CD144000D3144000C4
:1014B000D7144000DB144000DF144000E314400068
:1014C0004FF4FA4310E04FF400430DE04FF40043B3
:1014D0000AE0084B08E0084B06E0084B04E0074B25
:1014E00002E0064B00E0002318460C37BD465DF8CD
:1014F000047B704700093D0000127A00001BB70012
:1015000080B500AF0620044B9847024613469B0067
:1015100013449B00184680BD8D14400080B500AF79
:10152000024B984703465B08184680BD01154000F2
:1015300090B583B000AF7860396017480021174B31
:10154000984715480021164B98470246154B104600
:10155000984702460B46144C104619460CA3D3E993
:101560000023A04702460B46104619460F4B9847EA
:101570000346094800211A460D4B984706480021AA
:101580000C4B98470C37BD4690BD00BFAFF30080B1
:101590009A9999999999F13F0000014029104000CA
:1015A00049104000A91A4000951B4000B91F400097
:1015B0006D1040000910400090B583B000AF786016
:1015C000396017480021174B984715480021164BE2
:1015D00098470246154B1046984702460B46144C56
:1015E000104619460CA3D3E90023A04702460B4638
:1015F000104619460F4B98470346094800211A46E2
:101600000D4B9847064800210C4B98470C37BD46B8
:1016100090BD00BFAFF30080CDCCCCCCCCCCEC3FA8
:10162000000001402910400049104000A91A400064
:10163000951B4000B91F40006D104000091040008C
:1016400080B582B000AF0D4800210D4B984703468E
:101650007B607B680B4B9B6B03F48013002B05D0E6
:1016600008484FF48011084B984704E005484FF4B0
:101670008011064B98470837BD4680BD00000140E9
:10168000B9104000000E0E40F5044000D90440009F
:1016900090B583B002AF0C20224B98472248082116
:1016A0007922224B9847204808216422204B9847F2
:1016B000204B00931C480C21082250231E4CA047AD
:1016C000194808211D4B98470C2000211C4B9847B6
:1016D0000C201C4B98470D20124B98471A484FF48A
:1016E00080515922114B984717484FF4805164227A
:1016F0000F4B9847154B009313480D214FF4805220
:1017000050230D4CA04710484FF480510B4B984785
:101710000D2001210A4B98470D200A4B98470437AA
:10172000BD4690BDA10A400000100E4011054000CA
:10173000A104400031154000950740005D064000BF
:10174000391440000914400000120E40B915400041
:1017500090B583B002AF0B20064B9847002300934F
:1017600005484FF4801101220023044CA0470437A0
:10177000BD4690BDA10A4000000E0E408D05400000
:1017800080B582B000AF104B9847786017200F4BA0
:1017900098470F48002144F204020E4B98470C482A
:1017A00000214FF400420C4B9847094800211022B9
:1017B0000A4B984717200A4B984705480021094BC8
:1017C00098470837BD4680BD1D154000A10A40005E
:1017D00000000140D10F40006D104000911040000A
:1017E000091440000910400080B500AF074B98472E
:1017F000074B4FF400425A60064B9847064B9847F8
:10180000064B98470220064B9847FBE7050440002B
:1018100050140E40511740008117400091164000AF
:10182000D50B400081F0004102E000BF83F000438F
:1018300030B54FEA41044FEA430594EA050F08BF6B
:1018400090EA020F1FBF54EA000C55EA020C7FEA2F
:10185000645C7FEA655C00F0E2804FEA5454D4EBAC
:101860005555B8BF6D420CDD2C4480EA020281EA76
:10187000030382EA000083EA010180EA020281EAAE
:101880000303362D88BF30BD11F0004F4FEA013100
:101890004FF4801C4CEA113102D0404261EB41010F
:1018A00013F0004F4FEA03334CEA133302D0524295
:1018B00063EB430394EA050F00F0A780A4F1010451
:1018C000D5F1200E0DDB02FA0EFC22FA05F280188B
:1018D00041F1000103FA0EF2801843FA05F3594171
:1018E0000EE0A5F120050EF1200E012A03FA0EFCF0
:1018F00028BF4CF0020C43FA05F3C01851EBE3711A
:1019000001F0004507D54FF0000EDCF1000C7EEB36
:1019100000006EEB0101B1F5801F1BD3B1F5001F74
:101920000CD349085FEA30004FEA3C0C04F1010493
:101930004FEA445212F5800F80F09A80BCF1004FBC
:1019400008BF5FEA500C50F1000041EB045141EA3E
:10195000050130BD5FEA4C0C404141EB010111F43F
:10196000801FA4F10104E9D191F0000F04BF0146EA
:101970000020B1FA81F308BF2033A3F10B03B3F1C8
:1019800020020CDA0C3208DD02F1140CC2F10C0258
:1019900001FA0CF021FA02F10CE002F11402D8BFB6
:1019A000C2F1200C01FA02F120FA0CFCDCBF41EA82
:1019B0000C019040E41AA2BF01EB0451294330BD51
:1019C0006FEA04041F3C1CDA0C340EDC04F114042E
:1019D000C4F1200220FA04F001FA02F340EA030005
:1019E00021FA04F345EA030130BDC4F10C04C4F14B
:1019F000200220FA02F001FA04F340EA030029462B
:101A000030BD21FA04F0294630BD94F0000F83F474
:101A1000801306BF81F480110134013D4EE77FEA57
:101A2000645C18BF7FEA655C29D094EA050F08BFA3
:101A300090EA020F05D054EA000C04BF1946104684
:101A400030BD91EA030F1EBF0021002030BD5FEAC8
:101A5000545C05D14000494128BF41F0004130BDF0
:101A600014F580043CBF01F5801130BD01F0004544
:101A700045F0FE4141F470014FF0000030BD7FEAB7
:101A8000645C1ABF194610467FEA655C1CBF0B46B2
:101A9000024650EA013406BF52EA033591EA030FC9
:101AA00041F4002130BD00BF90F0000F04BF0021C1
:101AB000704730B54FF4806404F132044FF00005F4
:101AC0004FF0000150E700BF90F0000F04BF00216D
:101AD000704730B54FF4806404F1320410F00045D3
:101AE00048BF40424FF000013EE700BF42004FEACE
:101AF000E2014FEA31014FEA02701FBF12F07F434B
:101B000093F07F4F81F06051704792F0000F14BF47
:101B100093F07F4F704730B54FF4607401F000458B
:101B200021F0004120E700BF50EA010208BF7047E2
:101B300030B54FF000050AE050EA010208BF7047D7
:101B400030B511F0004502D5404261EB41014FF440
:101B5000806404F132045FEA915C3FF4DCAE4FF044
:101B600003025FEADC0C18BF03325FEADC0C18BF2B
:101B7000033202EBDC02C2F1200300FA03FC20FA7C
:101B800002F001FA03FE40EA0E0021FA02F11444C9
:101B9000C1E600BF70B54FF0FF0C4CF4E06C1CEADE
:101BA00011541DBF1CEA135594EA0C0F95EA0C0F53
:101BB00000F0DEF82C4481EA030621EA4C5123EAC6
:101BC0004C5350EA013518BF52EA033541F48011F5
:101BD00043F4801338D0A0FB02CE4FF00005E1FBA8
:101BE00002E506F00042E0FB03E54FF00006E1FBF2
:101BF00003569CF0000F18BF4EF0010EA4F1FF0435
:101C0000B6F5007F64F5407404D25FEA4E0E6D4174
:101C100046EB060642EAC62141EA55514FEAC52085
:101C200040EA5E504FEACE2EB4F1FD0C88BFBCF501
:101C3000E06F1ED8BEF1004F08BF5FEA500E50F1B2
:101C4000000041EB045170BD06F0004646EA010178
:101C500040EA020081EA0301B4EB5C04C2BFD4EBAA
:101C60000C0541EA045170BD41F480114FF0000EA3
:101C7000013C00F3AB8014F1360FDEBF002001F011
:101C8000004170BDC4F10004203C35DA0C341BDC8B
:101C900004F11404C4F1200500FA05F320FA04F05D
:101CA00001FA05F240EA020001F0004221F0004191
:101CB00010EBD37021FA04F642EB06015EEA430E04
:101CC00008BF20EAD37070BDC4F10C04C4F1200534
:101CD00000FA04F320FA05F001FA04F240EA0200E7
:101CE00001F0004110EBD37041F100015EEA430EB8
:101CF00008BF20EAD37070BDC4F1200500FA05F2D8
:101D00004EEA020E20FA04F301FA05F243EA020356
:101D100021FA04F001F0004121FA04F220EA020065
:101D200000EBD3705EEA430E08BF20EAD37070BDAB
:101D300094F0000F0FD101F00046400041EB01018B
:101D400011F4801F08BF013CF7D041EA060195F06D
:101D5000000F18BF704703F00046520043EB030327
:101D600013F4801F08BF013DF7D043EA0603704714
:101D700094EA0C0F0CEA135518BF95EA0C0F0CD01F
:101D800050EA410618BF52EA4306D1D181EA030165
:101D900001F000414FF0000070BD50EA410606BF5F
:101DA0001046194652EA430619D094EA0C0F02D1A4
:101DB00050EA013613D195EA0C0F05D152EA0336E9
:101DC0001CBF104619460AD181EA030101F0004107
:101DD00041F0FE4141F470014FF0000070BD41F050
:101DE000FE4141F4780170BD70B54FF0FF0C4CF42A
:101DF000E06C1CEA11541DBF1CEA135594EA0C0F49
:101E000095EA0C0F00F0A7F8A4EB050481EA030E95
:101E100052EA03354FEA013100F088804FEA03337C
:101E20004FF0805545EA131343EA12634FEA02224A
:101E300045EA111545EA10654FEA00260EF000410B
:101E40009D4208BF964244F1FD0404F5407402D25D
:101E50005B084FEA3202B61A65EB03055B084FEAEE
:101E600032024FF480104FF4002CB6EB020E75EBEB
:101E7000030E22BFB61A754640EA0C005B084FEA13
:101E80003202B6EB020E75EB030E22BFB61A754690
:101E900040EA5C005B084FEA3202B6EB020E75EBDB
:101EA000030E22BFB61A754640EA9C005B084FEA53
:101EB0003202B6EB020E75EB030E22BFB61A754660
:101EC00040EADC0055EA060E18D04FEA051545EA4F
:101ED00016754FEA06164FEAC30343EA52734FEAF8
:101EE000C2025FEA1C1CC0D111F4801F0BD141EA71
:101EF00000014FF000004FF0004CB6E711F4801FD6
:101F000004BF01430020B4F1FD0C88BFBCF5E06FB5
:101F10003FF6AFAEB5EB030C04BFB6EB020C5FEAC5
:101F2000500C50F1000041EB045170BD0EF0004E1A
:101F30004EEA113114EB5C04C2BFD4EB0C0541EA4C
:101F4000045170BD41F480114FF0000E013C90E649
:101F500045EA060E8DE60CEA135594EA0C0F08BF0D
:101F600095EA0C0F3FF43BAF94EA0C0F0AD150EA0C
:101F700001347FF434AF95EA0C0F7FF425AF10469F
:101F800019462CE795EA0C0F06D152EA03353FF4C7
:101F9000FDAE1046194622E750EA410618BF52EA44
:101FA00043067FF4C5AE50EA41047FF40DAF52EA18
:101FB00043057FF4EBAE12E74A0011D212F500128E
:101FC00011D20DD56FF47873B3EB62520ED44FEA91
:101FD000C12343F0004343EA505323FA02F0704711
:101FE0004FF00000704750EA013002D14FF0FF304F
:101FF00070474FF00000704770B50F4E0F4D761BC5
:10200000B61018BF002405D0013455F8043B98479A
:10201000A642F9D10A4E0B4D761B00F091F8B6108E
:1020200018BF002406D0013455F8043B9847A64257
:10203000F9D170BD70BD00BF4C2140004C21400063
:10204000542140004C214000024B13B1024800F0E3
:1020500005B87047000000006920400001460020DC
:102060000246034600F016B838B5084B084DED1A85
:10207000AC1018BFED1805D0013C55F8043D984749
:10208000002CF9D1BDE8384000F064B86021400070
:10209000642140002DE9F047254C2568D5F84841DA
:1020A0000646884692469946CCB360681F2818DCDD
:1020B000431C7EB104EB80050121C5F888A0D4F84B
:1020C000887101FA00F21743022EC4F88871C5F82E
:1020D00008911ED00230636044F820800020BDE8E3
:1020E000F087144B03B34FF4C870AFF3008004467D
:1020F000D0B1D5F84831002780E88800C5F84841BC
:1021000038460123C4F88871C4F88C71002EE1D0E0
:10211000D0E7D4F88C110A43C4F88C21DAE705F52E
:10212000A674C5F84841C0E74FF0FF30BDE8F0871E
:102130003C2140000000000043000000100000208F
:10214000F8B500BFF8BC08BC9E4670474920400067
:10215000F1004000F8B500BFF8BC08BC9E467047CF
:04216000CD0040006E
:10216400010000000000200000093D000000000004
:1021740000000000FC02002064030020CC030020C7
:10218400000000000000000000000000000000004B
:10219400000000000000000000000000000000003B
:1021A4000000000038214000000000000000000092
:1021B400000000000000000000000000000000001B
:1021C400000000000000000000000000000000000B
:1021D40000000000000000000000000000000000FB
:1021E40000000000000000000000000000000000EB
:1021F40000000000000000000000000000000000DB
:1022040000000000000000000000000000000000CA
:1022140000000000000000000100000000000000B9
:102224000E33CDAB34126DE6ECDE05000B0000007E
:10223400000000000000000000000000000000009A
:10224400000000000000000000000000000000008A
:10225400000000000000000000000000000000007A
:10226400000000000000000000000000000000006A
:04000005004010DDCA
:00000001FF
